{
  "contractName": "BVToken",
  "abi": [
    {
      "inputs": [],
      "stateMutability": "nonpayable",
      "type": "constructor"
    },
    {
      "anonymous": false,
      "inputs": [
        {
          "indexed": true,
          "internalType": "address",
          "name": "owner",
          "type": "address"
        },
        {
          "indexed": true,
          "internalType": "address",
          "name": "spender",
          "type": "address"
        },
        {
          "indexed": false,
          "internalType": "uint256",
          "name": "value",
          "type": "uint256"
        }
      ],
      "name": "Approval",
      "type": "event"
    },
    {
      "anonymous": false,
      "inputs": [
        {
          "indexed": true,
          "internalType": "address",
          "name": "from",
          "type": "address"
        },
        {
          "indexed": true,
          "internalType": "address",
          "name": "to",
          "type": "address"
        },
        {
          "indexed": false,
          "internalType": "uint256",
          "name": "value",
          "type": "uint256"
        }
      ],
      "name": "Transfer",
      "type": "event"
    },
    {
      "inputs": [],
      "name": "_decimals",
      "outputs": [
        {
          "internalType": "uint8",
          "name": "",
          "type": "uint8"
        }
      ],
      "stateMutability": "view",
      "type": "function",
      "constant": true
    },
    {
      "inputs": [],
      "name": "_name",
      "outputs": [
        {
          "internalType": "string",
          "name": "",
          "type": "string"
        }
      ],
      "stateMutability": "view",
      "type": "function",
      "constant": true
    },
    {
      "inputs": [],
      "name": "_symbol",
      "outputs": [
        {
          "internalType": "string",
          "name": "",
          "type": "string"
        }
      ],
      "stateMutability": "view",
      "type": "function",
      "constant": true
    },
    {
      "inputs": [],
      "name": "decimals",
      "outputs": [
        {
          "internalType": "uint8",
          "name": "",
          "type": "uint8"
        }
      ],
      "stateMutability": "view",
      "type": "function",
      "constant": true
    },
    {
      "inputs": [],
      "name": "symbol",
      "outputs": [
        {
          "internalType": "string",
          "name": "",
          "type": "string"
        }
      ],
      "stateMutability": "view",
      "type": "function",
      "constant": true
    },
    {
      "inputs": [],
      "name": "name",
      "outputs": [
        {
          "internalType": "string",
          "name": "",
          "type": "string"
        }
      ],
      "stateMutability": "view",
      "type": "function",
      "constant": true
    },
    {
      "inputs": [],
      "name": "totalSupply",
      "outputs": [
        {
          "internalType": "uint256",
          "name": "",
          "type": "uint256"
        }
      ],
      "stateMutability": "view",
      "type": "function",
      "constant": true
    },
    {
      "inputs": [
        {
          "internalType": "address",
          "name": "account",
          "type": "address"
        }
      ],
      "name": "balanceOf",
      "outputs": [
        {
          "internalType": "uint256",
          "name": "",
          "type": "uint256"
        }
      ],
      "stateMutability": "view",
      "type": "function",
      "constant": true
    },
    {
      "inputs": [
        {
          "internalType": "address",
          "name": "_recipient",
          "type": "address"
        },
        {
          "internalType": "uint256",
          "name": "_amount",
          "type": "uint256"
        }
      ],
      "name": "transfer",
      "outputs": [
        {
          "internalType": "bool",
          "name": "",
          "type": "bool"
        }
      ],
      "stateMutability": "nonpayable",
      "type": "function"
    },
    {
      "inputs": [
        {
          "internalType": "address",
          "name": "_owner",
          "type": "address"
        },
        {
          "internalType": "address",
          "name": "_spender",
          "type": "address"
        }
      ],
      "name": "allowance",
      "outputs": [
        {
          "internalType": "uint256",
          "name": "",
          "type": "uint256"
        }
      ],
      "stateMutability": "view",
      "type": "function",
      "constant": true
    },
    {
      "inputs": [
        {
          "internalType": "address",
          "name": "_spender",
          "type": "address"
        },
        {
          "internalType": "uint256",
          "name": "_amount",
          "type": "uint256"
        }
      ],
      "name": "approve",
      "outputs": [
        {
          "internalType": "bool",
          "name": "",
          "type": "bool"
        }
      ],
      "stateMutability": "nonpayable",
      "type": "function"
    },
    {
      "inputs": [
        {
          "internalType": "address",
          "name": "_sender",
          "type": "address"
        },
        {
          "internalType": "address",
          "name": "_recipient",
          "type": "address"
        },
        {
          "internalType": "uint256",
          "name": "_amount",
          "type": "uint256"
        }
      ],
      "name": "transferFrom",
      "outputs": [
        {
          "internalType": "bool",
          "name": "",
          "type": "bool"
        }
      ],
      "stateMutability": "nonpayable",
      "type": "function"
    },
    {
      "inputs": [
        {
          "internalType": "address",
          "name": "_spender",
          "type": "address"
        },
        {
          "internalType": "uint256",
          "name": "_addedValue",
          "type": "uint256"
        }
      ],
      "name": "increaseAllowance",
      "outputs": [
        {
          "internalType": "bool",
          "name": "",
          "type": "bool"
        }
      ],
      "stateMutability": "nonpayable",
      "type": "function"
    },
    {
      "inputs": [
        {
          "internalType": "address",
          "name": "_spender",
          "type": "address"
        },
        {
          "internalType": "uint256",
          "name": "_subtractedValue",
          "type": "uint256"
        }
      ],
      "name": "decreaseAllowance",
      "outputs": [
        {
          "internalType": "bool",
          "name": "",
          "type": "bool"
        }
      ],
      "stateMutability": "nonpayable",
      "type": "function"
    },
    {
      "inputs": [
        {
          "internalType": "uint256",
          "name": "_amount",
          "type": "uint256"
        }
      ],
      "name": "burn",
      "outputs": [],
      "stateMutability": "nonpayable",
      "type": "function"
    }
  ],
  "bytecode": "0x608060405234801561001057600080fd5b50604080518082019091526004808252631095931560e21b602090920191825261003c9160039161009c565b5060408051808201909152600280825261212b60f11b60209092019182526100669160049161009c565b506005805460ff191660121790556c25dd85d670d35ec9bec000000060028190553360009081526020819052604090205561013d565b828054600181600116156101000203166002900490600052602060002090601f0160209004810192826100d25760008555610118565b82601f106100eb57805160ff1916838001178555610118565b82800160010185558215610118579182015b828111156101185782518255916020019190600101906100fd565b50610124929150610128565b5090565b5b808211156101245760008155600101610129565b610cd08061014c6000396000f3fe608060405234801561001057600080fd5b50600436106100f55760003560e01c806342966c6811610097578063a9059cbb11610066578063a9059cbb146102d2578063b09f1266146102fe578063d28d885214610306578063dd62ed3e1461030e576100f5565b806342966c681461025957806370a082311461027857806395d89b411461029e578063a457c2d7146102a6576100f5565b806323b872dd116100d357806323b872dd146101d1578063313ce5671461020757806332424aa314610225578063395093511461022d576100f5565b806306fdde03146100fa578063095ea7b31461017757806318160ddd146101b7575b600080fd5b61010261033c565b6040805160208082528351818301528351919283929083019185019080838360005b8381101561013c578181015183820152602001610124565b50505050905090810190601f1680156101695780820380516001836020036101000a031916815260200191505b509250505060405180910390f35b6101a36004803603604081101561018d57600080fd5b506001600160a01b0381351690602001356103d2565b604080519115158252519081900360200190f35b6101bf6103ef565b60408051918252519081900360200190f35b6101a3600480360360608110156101e757600080fd5b506001600160a01b038135811691602081013590911690604001356103f5565b61020f61047c565b6040805160ff9092168252519081900360200190f35b61020f610485565b6101a36004803603604081101561024357600080fd5b506001600160a01b03813516906020013561048e565b6102766004803603602081101561026f57600080fd5b50356104dc565b005b6101bf6004803603602081101561028e57600080fd5b50356001600160a01b03166104f0565b61010261050b565b6101a3600480360360408110156102bc57600080fd5b506001600160a01b03813516906020013561056c565b6101a3600480360360408110156102e857600080fd5b506001600160a01b0381351690602001356105d4565b6101026105e8565b610102610676565b6101bf6004803603604081101561032457600080fd5b506001600160a01b03813581169160200135166106d1565b60038054604080516020601f60026000196101006001881615020190951694909404938401819004810282018101909252828152606093909290918301828280156103c85780601f1061039d576101008083540402835291602001916103c8565b820191906000526020600020905b8154815290600101906020018083116103ab57829003601f168201915b5050505050905090565b60006103e66103df6106fc565b8484610700565b50600192915050565b60025490565b6000610402848484610802565b6104728461040e6106fc565b61046d85604051806060016040528060268152602001610bc7602691396001600160a01b038a1660009081526001602052604081209061044c6106fc565b6001600160a01b031681526020810191909152604001600020549190610952565b610700565b5060019392505050565b60055460ff1690565b60055460ff1681565b60006103e661049b6106fc565b8461046d85600160006104ac6106fc565b6001600160a01b03908116825260208083019390935260409182016000908120918c1681529252902054906109e9565b6104ed6104e76106fc565b82610a4a565b50565b6001600160a01b031660009081526020819052604090205490565b60048054604080516020601f60026000196101006001881615020190951694909404938401819004810282018101909252828152606093909290918301828280156103c85780601f1061039d576101008083540402835291602001916103c8565b60006103e66105796106fc565b8461046d85604051806060016040528060238152602001610bed60239139600160006105a36106fc565b6001600160a01b03908116825260208083019390935260409182016000908120918d16815292529020549190610952565b60006103e66105e16106fc565b8484610802565b6004805460408051602060026001851615610100026000190190941693909304601f8101849004840282018401909252818152929183018282801561066e5780601f106106435761010080835404028352916020019161066e565b820191906000526020600020905b81548152906001019060200180831161065157829003601f168201915b505050505081565b6003805460408051602060026001851615610100026000190190941693909304601f8101849004840282018401909252818152929183018282801561066e5780601f106106435761010080835404028352916020019161066e565b6001600160a01b03918216600090815260016020908152604080832093909416825291909152205490565b3390565b6001600160a01b0383166107455760405162461bcd60e51b8152600401808060200182810382526022815260200180610c336022913960400191505060405180910390fd5b6001600160a01b0382166107a0576040805162461bcd60e51b815260206004820181905260248201527f4256543a20617070726f766520746f20746865207a65726f2061646472657373604482015290519081900360640190fd5b6001600160a01b03808416600081815260016020908152604080832094871680845294825291829020859055815185815291517f8c5be1e5ebec7d5bd14f71427d1e84f3dd0314c0f7b2291e5b200ac8c7c3b9259281900390910190a3505050565b6001600160a01b0383166108475760405162461bcd60e51b8152600401808060200182810382526023815260200180610c106023913960400191505060405180910390fd5b6001600160a01b03821661088c5760405162461bcd60e51b8152600401808060200182810382526021815260200180610c7a6021913960400191505060405180910390fd5b6108c981604051806060016040528060258152602001610c55602591396001600160a01b0386166000908152602081905260409020549190610952565b6001600160a01b0380851660009081526020819052604080822093909355908416815220546108f890826109e9565b6001600160a01b038084166000818152602081815260409182902094909455805185815290519193928716927fddf252ad1be2c89b69c2b068fc378daa952ba7f163c4a11628f55a4df523b3ef92918290030190a3505050565b600081848411156109e15760405162461bcd60e51b81526004018080602001828103825283818151815260200191508051906020019080838360005b838110156109a657818101518382015260200161098e565b50505050905090810190601f1680156109d35780820380516001836020036101000a031916815260200191505b509250505060405180910390fd5b505050900390565b600082820183811015610a43576040805162461bcd60e51b815260206004820152601b60248201527f536166654d6174683a206164646974696f6e206f766572666c6f770000000000604482015290519081900360640190fd5b9392505050565b6001600160a01b038216610aa5576040805162461bcd60e51b815260206004820152601f60248201527f4256543a206275726e2066726f6d20746865207a65726f206164647265737300604482015290519081900360640190fd5b60408051808201825260208082527f4256543a206275726e20616d6f756e7420657863656564732062616c616e6365818301526001600160a01b0385166000908152908190529190912054610afb918390610952565b6001600160a01b038316600090815260208190526040902055600254610b219082610b69565b6002556040805182815290516000916001600160a01b038516917fddf252ad1be2c89b69c2b068fc378daa952ba7f163c4a11628f55a4df523b3ef9181900360200190a35050565b600082821115610bc0576040805162461bcd60e51b815260206004820152601e60248201527f536166654d6174683a207375627472616374696f6e206f766572666c6f770000604482015290519081900360640190fd5b5090039056fe4256543a207472616e7366657220616d6f756e74206578636565647320616c6c6f77616e63654859543a2064656372656173656420616c6c6f77616e63652062656c6f77207a65726f4256543a207472616e736665722066726f6d20746865207a65726f20616464726573734256543a20617070726f76652066726f6d20746865207a65726f20616464726573734256543a207472616e73666572205f616d6f756e7420657863656564732062616c616e63654256543a207472616e7366657220746f20746865207a65726f2061646472657373a2646970667358221220132eee5c7524c53f0e18bd33e38c8d1ac8c78006a0e6345182cdfde996e31ae864736f6c63430007060033",
  "immutableReferences": {},
  "source": "// SPDX-License-Identifier: MIT\r\npragma solidity ^0.7.6;\r\n\r\nimport \"@openzeppelin/contracts/math/SafeMath.sol\";\r\nimport \"@openzeppelin/contracts/utils/Context.sol\";\r\nimport \"./interfaces/IBVToken.sol\";\r\n\r\ncontract BVToken is Context, IBVToken {\r\n    using SafeMath for uint256;\r\n\r\n    mapping(address => uint256) private _balances;\r\n    mapping(address => mapping(address => uint256)) private _allowances;\r\n\r\n    uint256 private _totalSupply;\r\n    string public _name;\r\n    string public _symbol;\r\n    uint8 public _decimals;\r\n\r\n    constructor() {\r\n        _name = \"BVLT\";\r\n        _symbol = \"BV\";\r\n        _decimals = 18;\r\n        _totalSupply = 3 * 10**12 * 10**18; // 500m\r\n        _balances[msg.sender] = _totalSupply;\r\n    }\r\n\r\n    /**\r\n     * @dev Returns the token decimals.\r\n     */\r\n    function decimals() external view virtual override returns (uint8) {\r\n        return _decimals;\r\n    }\r\n\r\n    /**\r\n     * @dev Returns the token symbol.\r\n     */\r\n    function symbol() external view virtual override returns (string memory) {\r\n        return _symbol;\r\n    }\r\n\r\n    /**\r\n     * @dev Returns the token name.\r\n     */\r\n    function name() external view virtual override returns (string memory) {\r\n        return _name;\r\n    }\r\n\r\n    /**\r\n     * @dev See total supply of token.\r\n     */\r\n    function totalSupply() external view virtual override returns (uint256) {\r\n        return _totalSupply;\r\n    }\r\n\r\n    /**\r\n     * @dev See balance of account.\r\n     */\r\n    function balanceOf(address account)\r\n        external\r\n        view\r\n        virtual\r\n        override\r\n        returns (uint256)\r\n    {\r\n        return _balances[account];\r\n    }\r\n\r\n    /**\r\n     * @dev transfer token from msg.sender to recipient\r\n     * @param _recipient address of account to receive token,\r\n     *                   where it cannot be zero\r\n     * @param _amount amount of token to transfer\r\n     */\r\n    function transfer(address _recipient, uint256 _amount)\r\n        external\r\n        override\r\n        returns (bool)\r\n    {\r\n        _transfer(_msgSender(), _recipient, _amount);\r\n        return true;\r\n    }\r\n\r\n    /**\r\n     * @dev get allowance spender by owner\r\n     * @param _owner owner of token\r\n     * @param _spender account to be approved.\r\n     */\r\n    function allowance(address _owner, address _spender)\r\n        external\r\n        view\r\n        override\r\n        returns (uint256)\r\n    {\r\n        return _allowances[_owner][_spender];\r\n    }\r\n\r\n    /**\r\n     * @dev approve spender by owner\r\n     * @param _spender account to be approved\r\n     * @param _amount amount to transfer\r\n     */\r\n    function approve(address _spender, uint256 _amount)\r\n        external\r\n        override\r\n        returns (bool)\r\n    {\r\n        _approve(_msgSender(), _spender, _amount);\r\n        return true;\r\n    }\r\n\r\n    /**\r\n     * @dev transfer token from _sender to _recipient and update allowance\r\n     */\r\n    function transferFrom(\r\n        address _sender,\r\n        address _recipient,\r\n        uint256 _amount\r\n    ) external override returns (bool) {\r\n        _transfer(_sender, _recipient, _amount);\r\n        _approve(\r\n            _sender,\r\n            _msgSender(),\r\n            _allowances[_sender][_msgSender()].sub(\r\n                _amount,\r\n                \"BVT: transfer amount exceeds allowance\"\r\n            )\r\n        );\r\n        return true;\r\n    }\r\n\r\n    /**\r\n     * @dev Atomically increases the allowance granted to `spender` by the caller.\r\n     *\r\n     * This is an alternative to {approve} that can be used as a mitigation for\r\n     * problems described in {BEP20-approve}.\r\n     *\r\n     * Emits an {Approval} event indicating the updated allowance.\r\n     */\r\n    function increaseAllowance(address _spender, uint256 _addedValue)\r\n        public\r\n        returns (bool)\r\n    {\r\n        _approve(\r\n            _msgSender(),\r\n            _spender,\r\n            _allowances[_msgSender()][_spender].add(_addedValue)\r\n        );\r\n        return true;\r\n    }\r\n\r\n    /**\r\n     * @dev Atomically decreases the allowance granted to `spender` by the caller.\r\n     *\r\n     * This is an alternative to {approve} that can be used as a mitigation for\r\n     * problems described in {BEP20-approve}.\r\n     *\r\n     * Emits an {Approval} event indicating the updated allowance.\r\n     */\r\n    function decreaseAllowance(address _spender, uint256 _subtractedValue)\r\n        public\r\n        returns (bool)\r\n    {\r\n        _approve(\r\n            _msgSender(),\r\n            _spender,\r\n            _allowances[_msgSender()][_spender].sub(\r\n                _subtractedValue,\r\n                \"HYT: decreased allowance below zero\"\r\n            )\r\n        );\r\n        return true;\r\n    }\r\n\r\n    /**\r\n     * @dev Destroys `_amount` tokens from the caller.\r\n     */\r\n    function burn(uint256 _amount) public virtual {\r\n        _burn(_msgSender(), _amount);\r\n    }\r\n\r\n    /**\r\n     * @dev Moves tokens `amount` from `sender` to `recipient`.\r\n     *\r\n     * This is internal function is equivalent to {transfer}, and can be used to\r\n     * e.g. implement automatic token fees, slashing mechanisms, etc.\r\n     *\r\n     * Emits a {Transfer} event.\r\n     *\r\n     * Requirements:\r\n     *\r\n     * - `sender` cannot be the zero address.\r\n     * - `recipient` cannot be the zero address.\r\n     * - `sender` must have a balance of at least `amount`.\r\n     */\r\n    function _transfer(\r\n        address _sender,\r\n        address _recipient,\r\n        uint256 _amount\r\n    ) internal {\r\n        require(_sender != address(0), \"BVT: transfer from the zero address\");\r\n        require(_recipient != address(0), \"BVT: transfer to the zero address\");\r\n\r\n        _balances[_sender] = _balances[_sender].sub(\r\n            _amount,\r\n            \"BVT: transfer _amount exceeds balance\"\r\n        );\r\n        _balances[_recipient] = _balances[_recipient].add(_amount);\r\n        emit Transfer(_sender, _recipient, _amount);\r\n    }\r\n\r\n    /**\r\n     * @dev Destroys `amount` tokens from `_account`, reducing the\r\n     * total supply.\r\n     *\r\n     * Emits a {Transfer} event with `to` set to the zero address.\r\n     *\r\n     * Requirements\r\n     *\r\n     * - `_account` cannot be the zero address.\r\n     * - `_account` must have at least `_amount` tokens.\r\n     */\r\n    function _burn(address _account, uint256 _amount) internal {\r\n        require(_account != address(0), \"BVT: burn from the zero address\");\r\n\r\n        _balances[_account] = _balances[_account].sub(\r\n            _amount,\r\n            \"BVT: burn amount exceeds balance\"\r\n        );\r\n        _totalSupply = _totalSupply.sub(_amount);\r\n        emit Transfer(_account, address(0), _amount);\r\n    }\r\n\r\n    /**\r\n     * @dev Sets `_amount` as the allowance of `spender` over the `_owner`s tokens.\r\n     *\r\n     * This is internal function is equivalent to `approve`, and can be used to\r\n     * e.g. set automatic allowances for certain subsystems, etc.\r\n     *\r\n     * Emits an {Approval} event.\r\n     *\r\n     * Requirements:\r\n     *\r\n     * - `_owner` cannot be the zero address.\r\n     * - `_spender` cannot be the zero address.\r\n     */\r\n    function _approve(\r\n        address _owner,\r\n        address _spender,\r\n        uint256 _amount\r\n    ) internal {\r\n        require(_owner != address(0), \"BVT: approve from the zero address\");\r\n        require(_spender != address(0), \"BVT: approve to the zero address\");\r\n\r\n        _allowances[_owner][_spender] = _amount;\r\n        emit Approval(_owner, _spender, _amount);\r\n    }\r\n}\r\n",
  "sourcePath": "E:\\BlocVaultAddWallet\\blocVault\\contracts\\BVToken.sol",
  "compiler": {
    "name": "solc",
    "version": "0.7.6+commit.7338295f.Emscripten.clang"
  },
  "schemaVersion": "3.4.3",
  "updatedAt": "2021-12-12T21:26:32.391Z",
  "networkType": "ethereum",
  "devdoc": {
    "kind": "dev",
    "methods": {
      "allowance(address,address)": {
        "details": "get allowance spender by owner",
        "params": {
          "_owner": "owner of token",
          "_spender": "account to be approved."
        }
      },
      "approve(address,uint256)": {
        "details": "approve spender by owner",
        "params": {
          "_amount": "amount to transfer",
          "_spender": "account to be approved"
        }
      },
      "balanceOf(address)": {
        "details": "See balance of account."
      },
      "burn(uint256)": {
        "details": "Destroys `_amount` tokens from the caller."
      },
      "decimals()": {
        "details": "Returns the token decimals."
      },
      "decreaseAllowance(address,uint256)": {
        "details": "Atomically decreases the allowance granted to `spender` by the caller. This is an alternative to {approve} that can be used as a mitigation for problems described in {BEP20-approve}. Emits an {Approval} event indicating the updated allowance."
      },
      "increaseAllowance(address,uint256)": {
        "details": "Atomically increases the allowance granted to `spender` by the caller. This is an alternative to {approve} that can be used as a mitigation for problems described in {BEP20-approve}. Emits an {Approval} event indicating the updated allowance."
      },
      "name()": {
        "details": "Returns the token name."
      },
      "symbol()": {
        "details": "Returns the token symbol."
      },
      "totalSupply()": {
        "details": "See total supply of token."
      },
      "transfer(address,uint256)": {
        "details": "transfer token from msg.sender to recipient",
        "params": {
          "_amount": "amount of token to transfer",
          "_recipient": "address of account to receive token,                   where it cannot be zero"
        }
      },
      "transferFrom(address,address,uint256)": {
        "details": "transfer token from _sender to _recipient and update allowance"
      }
    },
    "version": 1
  },
  "userdoc": {
    "kind": "user",
    "methods": {},
    "version": 1
  }
}