{
  "contractName": "BlocVaultToken",
  "abi": [
    {
      "inputs": [],
      "stateMutability": "nonpayable",
      "type": "constructor"
    },
    {
      "anonymous": false,
      "inputs": [
        {
          "indexed": true,
          "internalType": "address",
          "name": "owner",
          "type": "address"
        },
        {
          "indexed": true,
          "internalType": "address",
          "name": "spender",
          "type": "address"
        },
        {
          "indexed": false,
          "internalType": "uint256",
          "name": "value",
          "type": "uint256"
        }
      ],
      "name": "Approval",
      "type": "event"
    },
    {
      "anonymous": false,
      "inputs": [
        {
          "indexed": true,
          "internalType": "address",
          "name": "previousOwner",
          "type": "address"
        },
        {
          "indexed": true,
          "internalType": "address",
          "name": "newOwner",
          "type": "address"
        }
      ],
      "name": "OwnershipTransferred",
      "type": "event"
    },
    {
      "anonymous": false,
      "inputs": [
        {
          "indexed": false,
          "internalType": "uint256",
          "name": "tokensSwapped",
          "type": "uint256"
        },
        {
          "indexed": false,
          "internalType": "uint256",
          "name": "bnbReceived",
          "type": "uint256"
        },
        {
          "indexed": false,
          "internalType": "uint256",
          "name": "tokensIntoLiqudity",
          "type": "uint256"
        }
      ],
      "name": "SwapAndLiquify",
      "type": "event"
    },
    {
      "anonymous": false,
      "inputs": [
        {
          "indexed": true,
          "internalType": "address",
          "name": "from",
          "type": "address"
        },
        {
          "indexed": true,
          "internalType": "address",
          "name": "to",
          "type": "address"
        },
        {
          "indexed": false,
          "internalType": "uint256",
          "name": "value",
          "type": "uint256"
        }
      ],
      "name": "Transfer",
      "type": "event"
    },
    {
      "inputs": [],
      "name": "_burnAddress",
      "outputs": [
        {
          "internalType": "address payable",
          "name": "",
          "type": "address"
        }
      ],
      "stateMutability": "view",
      "type": "function",
      "constant": true
    },
    {
      "inputs": [],
      "name": "_deployTimestamp",
      "outputs": [
        {
          "internalType": "uint256",
          "name": "",
          "type": "uint256"
        }
      ],
      "stateMutability": "view",
      "type": "function",
      "constant": true
    },
    {
      "inputs": [],
      "name": "_developAddress",
      "outputs": [
        {
          "internalType": "address payable",
          "name": "",
          "type": "address"
        }
      ],
      "stateMutability": "view",
      "type": "function",
      "constant": true
    },
    {
      "inputs": [],
      "name": "_enableLiquidity",
      "outputs": [
        {
          "internalType": "bool",
          "name": "",
          "type": "bool"
        }
      ],
      "stateMutability": "view",
      "type": "function",
      "constant": true
    },
    {
      "inputs": [],
      "name": "_marketingAddress",
      "outputs": [
        {
          "internalType": "address payable",
          "name": "",
          "type": "address"
        }
      ],
      "stateMutability": "view",
      "type": "function",
      "constant": true
    },
    {
      "inputs": [],
      "name": "_maxTxAmount",
      "outputs": [
        {
          "internalType": "uint256",
          "name": "",
          "type": "uint256"
        }
      ],
      "stateMutability": "view",
      "type": "function",
      "constant": true
    },
    {
      "inputs": [],
      "name": "_pancakeswapV2LiquidityPair",
      "outputs": [
        {
          "internalType": "address",
          "name": "",
          "type": "address"
        }
      ],
      "stateMutability": "view",
      "type": "function",
      "constant": true
    },
    {
      "inputs": [],
      "name": "_pancakeswapV2Router",
      "outputs": [
        {
          "internalType": "contract IUniswapV2Router02",
          "name": "",
          "type": "address"
        }
      ],
      "stateMutability": "view",
      "type": "function",
      "constant": true
    },
    {
      "inputs": [],
      "name": "_preSaleAddress",
      "outputs": [
        {
          "internalType": "address payable",
          "name": "",
          "type": "address"
        }
      ],
      "stateMutability": "view",
      "type": "function",
      "constant": true
    },
    {
      "inputs": [],
      "name": "_preSaleLockDeadline",
      "outputs": [
        {
          "internalType": "uint256",
          "name": "",
          "type": "uint256"
        }
      ],
      "stateMutability": "view",
      "type": "function",
      "constant": true
    },
    {
      "inputs": [],
      "name": "_preSellTaxFee",
      "outputs": [
        {
          "internalType": "uint256",
          "name": "",
          "type": "uint256"
        }
      ],
      "stateMutability": "view",
      "type": "function",
      "constant": true
    },
    {
      "inputs": [],
      "name": "_taxFee",
      "outputs": [
        {
          "internalType": "uint256",
          "name": "",
          "type": "uint256"
        }
      ],
      "stateMutability": "view",
      "type": "function",
      "constant": true
    },
    {
      "inputs": [],
      "name": "_tokenSwapThreshold",
      "outputs": [
        {
          "internalType": "uint256",
          "name": "",
          "type": "uint256"
        }
      ],
      "stateMutability": "view",
      "type": "function",
      "constant": true
    },
    {
      "inputs": [],
      "name": "_vestingAddress",
      "outputs": [
        {
          "internalType": "address payable",
          "name": "",
          "type": "address"
        }
      ],
      "stateMutability": "view",
      "type": "function",
      "constant": true
    },
    {
      "inputs": [],
      "name": "owner",
      "outputs": [
        {
          "internalType": "address",
          "name": "",
          "type": "address"
        }
      ],
      "stateMutability": "view",
      "type": "function",
      "constant": true
    },
    {
      "inputs": [
        {
          "internalType": "uint256",
          "name": "",
          "type": "uint256"
        }
      ],
      "name": "preSaleWhiteList_address",
      "outputs": [
        {
          "internalType": "address",
          "name": "",
          "type": "address"
        }
      ],
      "stateMutability": "view",
      "type": "function",
      "constant": true
    },
    {
      "inputs": [],
      "name": "presale_end_time",
      "outputs": [
        {
          "internalType": "uint256",
          "name": "",
          "type": "uint256"
        }
      ],
      "stateMutability": "view",
      "type": "function",
      "constant": true
    },
    {
      "inputs": [],
      "name": "presale_start_time",
      "outputs": [
        {
          "internalType": "uint256",
          "name": "",
          "type": "uint256"
        }
      ],
      "stateMutability": "view",
      "type": "function",
      "constant": true
    },
    {
      "inputs": [],
      "name": "renounceOwnership",
      "outputs": [],
      "stateMutability": "nonpayable",
      "type": "function"
    },
    {
      "inputs": [
        {
          "internalType": "address",
          "name": "newOwner",
          "type": "address"
        }
      ],
      "name": "transferOwnership",
      "outputs": [],
      "stateMutability": "nonpayable",
      "type": "function"
    },
    {
      "stateMutability": "payable",
      "type": "receive",
      "payable": true
    },
    {
      "inputs": [
        {
          "internalType": "address",
          "name": "vest_address",
          "type": "address"
        }
      ],
      "name": "get_isVesting",
      "outputs": [
        {
          "internalType": "bool",
          "name": "",
          "type": "bool"
        }
      ],
      "stateMutability": "view",
      "type": "function",
      "constant": true
    },
    {
      "inputs": [
        {
          "internalType": "address",
          "name": "vest_address",
          "type": "address"
        }
      ],
      "name": "get_vest_info",
      "outputs": [
        {
          "internalType": "uint256",
          "name": "",
          "type": "uint256"
        },
        {
          "internalType": "uint256",
          "name": "",
          "type": "uint256"
        },
        {
          "internalType": "uint256",
          "name": "",
          "type": "uint256"
        }
      ],
      "stateMutability": "view",
      "type": "function",
      "constant": true
    },
    {
      "inputs": [
        {
          "internalType": "uint256",
          "name": "amount",
          "type": "uint256"
        },
        {
          "internalType": "uint256",
          "name": "lockdays",
          "type": "uint256"
        }
      ],
      "name": "vesting",
      "outputs": [],
      "stateMutability": "nonpayable",
      "type": "function"
    },
    {
      "inputs": [],
      "name": "cliam_vest",
      "outputs": [],
      "stateMutability": "nonpayable",
      "type": "function"
    },
    {
      "inputs": [
        {
          "internalType": "uint256",
          "name": "amount",
          "type": "uint256"
        }
      ],
      "name": "withdrawBNB",
      "outputs": [],
      "stateMutability": "nonpayable",
      "type": "function"
    },
    {
      "inputs": [
        {
          "internalType": "address",
          "name": "token",
          "type": "address"
        }
      ],
      "name": "withdrawForeignToken",
      "outputs": [],
      "stateMutability": "nonpayable",
      "type": "function"
    },
    {
      "inputs": [
        {
          "internalType": "address",
          "name": "router",
          "type": "address"
        }
      ],
      "name": "setRouterAddress",
      "outputs": [],
      "stateMutability": "nonpayable",
      "type": "function"
    },
    {
      "inputs": [],
      "name": "name",
      "outputs": [
        {
          "internalType": "string",
          "name": "",
          "type": "string"
        }
      ],
      "stateMutability": "view",
      "type": "function",
      "constant": true
    },
    {
      "inputs": [],
      "name": "symbol",
      "outputs": [
        {
          "internalType": "string",
          "name": "",
          "type": "string"
        }
      ],
      "stateMutability": "view",
      "type": "function",
      "constant": true
    },
    {
      "inputs": [],
      "name": "decimals",
      "outputs": [
        {
          "internalType": "uint8",
          "name": "",
          "type": "uint8"
        }
      ],
      "stateMutability": "view",
      "type": "function",
      "constant": true
    },
    {
      "inputs": [],
      "name": "totalSupply",
      "outputs": [
        {
          "internalType": "uint256",
          "name": "",
          "type": "uint256"
        }
      ],
      "stateMutability": "view",
      "type": "function",
      "constant": true
    },
    {
      "inputs": [
        {
          "internalType": "address",
          "name": "account",
          "type": "address"
        }
      ],
      "name": "balanceOf",
      "outputs": [
        {
          "internalType": "uint256",
          "name": "",
          "type": "uint256"
        }
      ],
      "stateMutability": "view",
      "type": "function",
      "constant": true
    },
    {
      "inputs": [
        {
          "internalType": "address",
          "name": "recipient",
          "type": "address"
        },
        {
          "internalType": "uint256",
          "name": "amount",
          "type": "uint256"
        }
      ],
      "name": "transfer",
      "outputs": [
        {
          "internalType": "bool",
          "name": "",
          "type": "bool"
        }
      ],
      "stateMutability": "nonpayable",
      "type": "function"
    },
    {
      "inputs": [
        {
          "internalType": "address",
          "name": "owner",
          "type": "address"
        },
        {
          "internalType": "address",
          "name": "spender",
          "type": "address"
        }
      ],
      "name": "allowance",
      "outputs": [
        {
          "internalType": "uint256",
          "name": "",
          "type": "uint256"
        }
      ],
      "stateMutability": "view",
      "type": "function",
      "constant": true
    },
    {
      "inputs": [
        {
          "internalType": "address",
          "name": "spender",
          "type": "address"
        },
        {
          "internalType": "uint256",
          "name": "amount",
          "type": "uint256"
        }
      ],
      "name": "approve",
      "outputs": [
        {
          "internalType": "bool",
          "name": "",
          "type": "bool"
        }
      ],
      "stateMutability": "nonpayable",
      "type": "function"
    },
    {
      "inputs": [
        {
          "internalType": "address",
          "name": "sender",
          "type": "address"
        },
        {
          "internalType": "address",
          "name": "recipient",
          "type": "address"
        },
        {
          "internalType": "uint256",
          "name": "amount",
          "type": "uint256"
        }
      ],
      "name": "transferFrom",
      "outputs": [
        {
          "internalType": "bool",
          "name": "",
          "type": "bool"
        }
      ],
      "stateMutability": "nonpayable",
      "type": "function"
    },
    {
      "inputs": [
        {
          "internalType": "address",
          "name": "spender",
          "type": "address"
        },
        {
          "internalType": "uint256",
          "name": "addedValue",
          "type": "uint256"
        }
      ],
      "name": "increaseAllowance",
      "outputs": [
        {
          "internalType": "bool",
          "name": "",
          "type": "bool"
        }
      ],
      "stateMutability": "nonpayable",
      "type": "function"
    },
    {
      "inputs": [
        {
          "internalType": "address",
          "name": "spender",
          "type": "address"
        },
        {
          "internalType": "uint256",
          "name": "subtractedValue",
          "type": "uint256"
        }
      ],
      "name": "decreaseAllowance",
      "outputs": [
        {
          "internalType": "bool",
          "name": "",
          "type": "bool"
        }
      ],
      "stateMutability": "nonpayable",
      "type": "function"
    },
    {
      "inputs": [],
      "name": "getTotalReflections",
      "outputs": [
        {
          "internalType": "uint256",
          "name": "",
          "type": "uint256"
        }
      ],
      "stateMutability": "view",
      "type": "function",
      "constant": true
    },
    {
      "inputs": [
        {
          "internalType": "address",
          "name": "account",
          "type": "address"
        }
      ],
      "name": "isExcludedFromFee",
      "outputs": [
        {
          "internalType": "bool",
          "name": "",
          "type": "bool"
        }
      ],
      "stateMutability": "view",
      "type": "function",
      "constant": true
    },
    {
      "inputs": [
        {
          "internalType": "address",
          "name": "account",
          "type": "address"
        }
      ],
      "name": "isExcludedFromReflection",
      "outputs": [
        {
          "internalType": "bool",
          "name": "",
          "type": "bool"
        }
      ],
      "stateMutability": "view",
      "type": "function",
      "constant": true
    },
    {
      "inputs": [
        {
          "internalType": "address",
          "name": "account",
          "type": "address"
        }
      ],
      "name": "excludeFromFee",
      "outputs": [],
      "stateMutability": "nonpayable",
      "type": "function"
    },
    {
      "inputs": [
        {
          "internalType": "address",
          "name": "account",
          "type": "address"
        }
      ],
      "name": "includeInFee",
      "outputs": [],
      "stateMutability": "nonpayable",
      "type": "function"
    },
    {
      "inputs": [
        {
          "internalType": "uint256",
          "name": "taxFee",
          "type": "uint256"
        }
      ],
      "name": "setTaxFeePercent",
      "outputs": [],
      "stateMutability": "nonpayable",
      "type": "function"
    },
    {
      "inputs": [
        {
          "internalType": "uint256",
          "name": "taxFee",
          "type": "uint256"
        }
      ],
      "name": "setPreSaleTaxFeePercent",
      "outputs": [],
      "stateMutability": "nonpayable",
      "type": "function"
    },
    {
      "inputs": [
        {
          "internalType": "uint256",
          "name": "maxTxAmount",
          "type": "uint256"
        }
      ],
      "name": "setMaxTxAmount",
      "outputs": [],
      "stateMutability": "nonpayable",
      "type": "function"
    },
    {
      "inputs": [
        {
          "internalType": "uint256",
          "name": "tokenSwapThreshold",
          "type": "uint256"
        }
      ],
      "name": "setTokenSwapThreshold",
      "outputs": [],
      "stateMutability": "nonpayable",
      "type": "function"
    },
    {
      "inputs": [
        {
          "internalType": "address",
          "name": "marketingAddress",
          "type": "address"
        }
      ],
      "name": "setMarketingAddress",
      "outputs": [],
      "stateMutability": "nonpayable",
      "type": "function"
    },
    {
      "inputs": [
        {
          "internalType": "address",
          "name": "preSaleAddress",
          "type": "address"
        }
      ],
      "name": "setPreSaleAddress",
      "outputs": [],
      "stateMutability": "nonpayable",
      "type": "function"
    },
    {
      "inputs": [
        {
          "internalType": "uint256",
          "name": "time",
          "type": "uint256"
        }
      ],
      "name": "setPreSaleTime",
      "outputs": [],
      "stateMutability": "nonpayable",
      "type": "function"
    },
    {
      "inputs": [
        {
          "internalType": "address",
          "name": "developAddress",
          "type": "address"
        }
      ],
      "name": "setDevelopAddress",
      "outputs": [],
      "stateMutability": "nonpayable",
      "type": "function"
    },
    {
      "inputs": [
        {
          "internalType": "address",
          "name": "vestingAddress",
          "type": "address"
        }
      ],
      "name": "setVestingAddress",
      "outputs": [],
      "stateMutability": "nonpayable",
      "type": "function"
    },
    {
      "inputs": [
        {
          "internalType": "bool",
          "name": "b",
          "type": "bool"
        }
      ],
      "name": "setLiquidity",
      "outputs": [],
      "stateMutability": "nonpayable",
      "type": "function"
    },
    {
      "inputs": [
        {
          "internalType": "uint256",
          "name": "tAmount",
          "type": "uint256"
        },
        {
          "internalType": "bool",
          "name": "deductTransferFee",
          "type": "bool"
        }
      ],
      "name": "reflectionFromToken",
      "outputs": [
        {
          "internalType": "uint256",
          "name": "",
          "type": "uint256"
        }
      ],
      "stateMutability": "view",
      "type": "function",
      "constant": true
    },
    {
      "inputs": [
        {
          "internalType": "uint256",
          "name": "rAmount",
          "type": "uint256"
        }
      ],
      "name": "tokenFromReflection",
      "outputs": [
        {
          "internalType": "uint256",
          "name": "",
          "type": "uint256"
        }
      ],
      "stateMutability": "view",
      "type": "function",
      "constant": true
    },
    {
      "inputs": [
        {
          "internalType": "address",
          "name": "account",
          "type": "address"
        }
      ],
      "name": "excludeFromReward",
      "outputs": [],
      "stateMutability": "nonpayable",
      "type": "function"
    },
    {
      "inputs": [
        {
          "internalType": "address",
          "name": "account",
          "type": "address"
        }
      ],
      "name": "includeInReward",
      "outputs": [],
      "stateMutability": "nonpayable",
      "type": "function"
    },
    {
      "inputs": [],
      "name": "getTime",
      "outputs": [
        {
          "internalType": "uint256",
          "name": "",
          "type": "uint256"
        }
      ],
      "stateMutability": "view",
      "type": "function",
      "constant": true
    },
    {
      "inputs": [
        {
          "internalType": "uint256",
          "name": "tAmount",
          "type": "uint256"
        }
      ],
      "name": "reflect",
      "outputs": [],
      "stateMutability": "nonpayable",
      "type": "function"
    }
  ],
  "bytecode": "0x60c060405260046080819052631095931560e21b60a0908152620000279160019190620003fb565b5060408051808201909152600280825261212b60f11b6020909201918252620000519181620003fb565b506003805460ff191660091790556627797f26d671c7600755600d80546001600160a01b0319908116730d8a65c6329521a39bf9353705ca989735e0596117909155600e80548216735cf74db6113290e6294e3b89878017ce618ccc19179055600f8054821673158153a675027e2c5fc7fcfdffb7a3343008629c1790556010805490911661dead17905568a2a15d09519be000006017819055620000f99060001962000588565b62000107906000196200052b565b601855600c601a556028601b5568a2a15d09519be00000601d55670429d069189e0000601e556022805460ff191660011790553480156200014757600080fd5b506200015333620003ab565b6018543360009081526011602090815260408083209390935581546001600160a01b03168252601481528282208054600160ff19918216811790925530845292849020805490931617909155815163c45a015560e01b8152915173d99d1c33f9fc3444f8101754abc46c52416550d192839263c45a015592600480840193829003018186803b158015620001e657600080fd5b505afa158015620001fb573d6000803e3d6000fd5b505050506040513d601f19601f82011682018060405250810190620002219190620004b4565b6001600160a01b031663c9c6539630836001600160a01b031663ad5c46486040518163ffffffff1660e01b815260040160206040518083038186803b1580156200026a57600080fd5b505afa1580156200027f573d6000803e3d6000fd5b505050506040513d601f19601f82011682018060405250810190620002a59190620004b4565b6040518363ffffffff1660e01b8152600401620002c4929190620004f5565b602060405180830381600087803b158015620002df57600080fd5b505af1158015620002f4573d6000803e3d6000fd5b505050506040513d601f19601f820116820180604052508101906200031a9190620004b4565b600b80546001600160a01b03199081166001600160a01b0393841617909155600a805490911691831691909117905542600455620003553390565b6001600160a01b031660006001600160a01b03167fddf252ad1be2c89b69c2b068fc378daa952ba7f163c4a11628f55a4df523b3ef6017546040516200039c91906200051b565b60405180910390a350620005fb565b600080546001600160a01b038381166001600160a01b0319831681178455604051919092169283917f8be0079c531659141344cd1fd0a4f28419497f9722a3daafe3b4186f6b6457e09190a35050565b828054620004099062000557565b90600052602060002090601f0160209004810192826200042d576000855562000478565b82601f106200044857805160ff191683800117855562000478565b8280016001018555821562000478579182015b82811115620004785782518255916020019190600101906200045b565b50620004869291506200048a565b5090565b5b808211156200048657600081556001016200048b565b8051620004ae81620005e1565b92915050565b600060208284031215620004c757600080fd5b6000620004d58484620004a1565b949350505050565b620004e88162000545565b82525050565b80620004e8565b60408101620005058285620004dd565b620005146020830184620004dd565b9392505050565b60208101620004ae8284620004ee565b6000828210156200054057620005406200059f565b500390565b60006001600160a01b038216620004ae565b6002810460018216806200056c57607f821691505b60208210811415620005825762000582620005cb565b50919050565b6000826200059a576200059a620005b5565b500690565b634e487b7160e01b600052601160045260246000fd5b634e487b7160e01b600052601260045260246000fd5b634e487b7160e01b600052602260045260246000fd5b620005ec8162000545565b8114620005f857600080fd5b50565b61398a806200060b6000396000f3fe6080604052600436106103905760003560e01c8063715018a6116101dc578063ae26773511610102578063dce4e1e1116100a0578063ec28438a1161006f578063ec28438a14610ab1578063ed6a413e14610ad1578063f16f07ae14610ae6578063f2fde38b14610afc57600080fd5b8063dce4e1e114610a15578063dd62ed3e14610a2b578063e4d75c9d14610a71578063ea2f0b3714610a9157600080fd5b8063bd3900c0116100dc578063bd3900c01461097d578063c9321d3c1461099d578063caac7934146109bd578063d62d0a85146109dd57600080fd5b8063ae26773514610928578063b43cb3d01461093d578063bb9f72c91461095d57600080fd5b80638e281cf21161017a578063a457c2d711610149578063a457c2d7146108ae578063a9059cbb146108ce578063ab387c96146108ee578063ad64598a1461090e57600080fd5b80638e281cf214610839578063906e9dd014610859578063958f4e171461087957806395d89b411461089957600080fd5b80637d459db3116101b65780637d459db3146107a25780637e99d454146107db578063885a4cd0146107fb5780638da5cb5b1461081b57600080fd5b8063715018a6146107615780637b020833146107765780637d1db4a51461078c57600080fd5b80633685d419116102c157806352390c021161025f57806359ecf39e1161022e57806359ecf39e146106d457806363f776ac146106f457806364ad2bbf1461072157806370a082311461074157600080fd5b806352390c02146106395780635342acb414610659578063548fbab514610692578063557ed1ba146106c157600080fd5b806341cb87fc1161029b57806341cb87fc146105c3578063437823ec146105e35780634549b0391461060357806347ba89cc1461062357600080fd5b80633685d4191461056d578063395093511461058d5780633b124fe7146105ad57600080fd5b806318160ddd1161032e5780632d838119116103085780632d838119146104ea578063313ce5671461050a578063334095b91461052a578063349ff7901461054057600080fd5b806318160ddd146104965780631fc1e51c146104b457806323b872dd146104ca57600080fd5b8063086e29d81161036a578063086e29d814610409578063095ea7b3146104295780630f0e4f7314610456578063127f4b2e1461047657600080fd5b8063053ab1821461039c578063061c82d0146103be57806306fdde03146103de57600080fd5b3661039757005b600080fd5b3480156103a857600080fd5b506103bc6103b7366004612f3e565b610b1c565b005b3480156103ca57600080fd5b506103bc6103d9366004612f3e565b610bc9565b3480156103ea57600080fd5b506103f3610bf8565b60405161040091906135cd565b60405180910390f35b34801561041557600080fd5b506103bc610424366004612f3e565b610c8a565b34801561043557600080fd5b50610449610444366004612ed2565b610cb9565b60405161040091906135b1565b34801561046257600080fd5b506103bc610471366004612f3e565b610cd0565b34801561048257600080fd5b506103bc610491366004612f3e565b610cff565b3480156104a257600080fd5b506017545b604051610400919061370e565b3480156104c057600080fd5b506104a760075481565b3480156104d657600080fd5b506104496104e5366004612e85565b610da8565b3480156104f657600080fd5b506104a7610505366004612f3e565b610e12565b34801561051657600080fd5b5060035460ff166040516104009190613797565b34801561053657600080fd5b506104a760065481565b34801561054c57600080fd5b50600f54610560906001600160a01b031681565b6040516104009190613513565b34801561057957600080fd5b506103bc610588366004612e07565b610e4c565b34801561059957600080fd5b506104496105a8366004612ed2565b611007565b3480156105b957600080fd5b506104a7601a5481565b3480156105cf57600080fd5b506103bc6105de366004612e07565b61103d565b3480156105ef57600080fd5b506103bc6105fe366004612e07565b611371565b34801561060f57600080fd5b506104a761061e366004612f7a565b6113bf565b34801561062f57600080fd5b506104a760045481565b34801561064557600080fd5b506103bc610654366004612e07565b61141a565b34801561066557600080fd5b50610449610674366004612e07565b6001600160a01b031660009081526014602052604090205460ff1690565b34801561069e57600080fd5b506106b26106ad366004612e07565b61153d565b6040516104009392919061376f565b3480156106cd57600080fd5b50426104a7565b3480156106e057600080fd5b506103bc6106ef366004612f3e565b6115a7565b34801561070057600080fd5b50600a54610714906001600160a01b031681565b60405161040091906135bf565b34801561072d57600080fd5b506103bc61073c366004612f02565b6115d6565b34801561074d57600080fd5b506104a761075c366004612e07565b611613565b34801561076d57600080fd5b506103bc611672565b34801561078257600080fd5b506104a7601b5481565b34801561079857600080fd5b506104a7601d5481565b3480156107ae57600080fd5b506104496107bd366004612e07565b6001600160a01b031660009081526015602052604090205460ff1690565b3480156107e757600080fd5b506103bc6107f6366004612e07565b6116a8565b34801561080757600080fd5b506103bc610816366004612e07565b6116f4565b34801561082757600080fd5b506000546001600160a01b0316610560565b34801561084557600080fd5b506103bc610854366004612e07565b61183c565b34801561086557600080fd5b506103bc610874366004612e07565b611888565b34801561088557600080fd5b50600c54610560906001600160a01b031681565b3480156108a557600080fd5b506103f36118d4565b3480156108ba57600080fd5b506104496108c9366004612ed2565b6118e3565b3480156108da57600080fd5b506104496108e9366004612ed2565b611932565b3480156108fa57600080fd5b50600b54610560906001600160a01b031681565b34801561091a57600080fd5b506022546104499060ff1681565b34801561093457600080fd5b506019546104a7565b34801561094957600080fd5b506103bc610958366004612faa565b61193f565b34801561096957600080fd5b50600e54610560906001600160a01b031681565b34801561098957600080fd5b50601054610560906001600160a01b031681565b3480156109a957600080fd5b506105606109b8366004612f3e565b611aa5565b3480156109c957600080fd5b50600d54610560906001600160a01b031681565b3480156109e957600080fd5b506104496109f8366004612e07565b6001600160a01b0316600090815260208052604090205460ff1690565b348015610a2157600080fd5b506104a760055481565b348015610a3757600080fd5b506104a7610a46366004612e4b565b6001600160a01b03918216600090815260136020908152604080832093909416825291909152205490565b348015610a7d57600080fd5b506103bc610a8c366004612e07565b611acf565b348015610a9d57600080fd5b506103bc610aac366004612e07565b611b1b565b348015610abd57600080fd5b506103bc610acc366004612f3e565b611b66565b348015610add57600080fd5b506103bc611b95565b348015610af257600080fd5b506104a7601e5481565b348015610b0857600080fd5b506103bc610b17366004612e07565b611d2a565b3360009081526015602052604090205460ff1615610b555760405162461bcd60e51b8152600401610b4c906136fe565b60405180910390fd5b6000610b6082611d83565b505050509050610b958160116000610b753390565b6001600160a01b0316815260208101919091526040016000205490611dc9565b33600090815260116020526040902055601854610bb29082611dc9565b601855601954610bc29083611dd5565b6019555050565b6000546001600160a01b03163314610bf35760405162461bcd60e51b8152600401610b4c9061369e565b601a55565b606060018054610c079061385b565b80601f0160208091040260200160405190810160405280929190818152602001828054610c339061385b565b8015610c805780601f10610c5557610100808354040283529160200191610c80565b820191906000526020600020905b815481529060010190602001808311610c6357829003601f168201915b5050505050905090565b6000546001600160a01b03163314610cb45760405162461bcd60e51b8152600401610b4c9061369e565b601b55565b6000610cc6338484611de1565b5060015b92915050565b6000546001600160a01b03163314610cfa5760405162461bcd60e51b8152600401610b4c9061369e565b600755565b6000546001600160a01b03163314610d295760405162461bcd60e51b8152600401610b4c9061369e565b80610d6c57600080546040516001600160a01b03909116914780156108fc02929091818181858888f19350505050158015610d68573d6000803e3d6000fd5b5050565b600080546040516001600160a01b039091169183156108fc02918491818181858888f19350505050158015610d68573d6000803e3d6000fd5b50565b6000610db5848484611e95565b610e078433610e0285604051806060016040528060288152602001613908602891396001600160a01b038a1660009081526013602090815260408083203384529091529020549190612182565b611de1565b5060015b9392505050565b6000601854821115610e365760405162461bcd60e51b8152600401610b4c906135ee565b6000610e406121ae565b9050610e0b83826121d1565b6000546001600160a01b03163314610e765760405162461bcd60e51b8152600401610b4c9061369e565b6001600160a01b03811660009081526015602052604090205460ff16610eae5760405162461bcd60e51b8152600401610b4c9061363e565b60005b601654811015610d6857816001600160a01b031660168281548110610ee657634e487b7160e01b600052603260045260246000fd5b6000918252602090912001546001600160a01b03161415610ff55760168054610f11906001906137f0565b81548110610f2f57634e487b7160e01b600052603260045260246000fd5b600091825260209091200154601680546001600160a01b039092169183908110610f6957634e487b7160e01b600052603260045260246000fd5b600091825260208083209190910180546001600160a01b0319166001600160a01b039485161790559184168152601282526040808220829055601590925220805460ff191690556016805480610fcf57634e487b7160e01b600052603160045260246000fd5b600082815260209020810160001990810180546001600160a01b03191690550190555050565b80610fff81613888565b915050610eb1565b3360008181526013602090815260408083206001600160a01b03871684529091528120549091610cc6918590610e029086611dd5565b6000546001600160a01b031633146110675760405162461bcd60e51b8152600401610b4c9061369e565b60008190506000816001600160a01b031663c45a01556040518163ffffffff1660e01b815260040160206040518083038186803b1580156110a757600080fd5b505afa1580156110bb573d6000803e3d6000fd5b505050506040513d601f19601f820116820180604052508101906110df9190612e2d565b6001600160a01b031663e6a4390530846001600160a01b031663ad5c46486040518163ffffffff1660e01b815260040160206040518083038186803b15801561112757600080fd5b505afa15801561113b573d6000803e3d6000fd5b505050506040513d601f19601f8201168201806040525081019061115f9190612e2d565b6040518363ffffffff1660e01b815260040161117c929190613521565b60206040518083038186803b15801561119457600080fd5b505afa1580156111a8573d6000803e3d6000fd5b505050506040513d601f19601f820116820180604052508101906111cc9190612e2d565b90506001600160a01b03811661133f57816001600160a01b031663c45a01556040518163ffffffff1660e01b815260040160206040518083038186803b15801561121557600080fd5b505afa158015611229573d6000803e3d6000fd5b505050506040513d601f19601f8201168201806040525081019061124d9190612e2d565b6001600160a01b031663c9c6539630846001600160a01b031663ad5c46486040518163ffffffff1660e01b815260040160206040518083038186803b15801561129557600080fd5b505afa1580156112a9573d6000803e3d6000fd5b505050506040513d601f19601f820116820180604052508101906112cd9190612e2d565b6040518363ffffffff1660e01b81526004016112ea929190613521565b602060405180830381600087803b15801561130457600080fd5b505af1158015611318573d6000803e3d6000fd5b505050506040513d601f19601f8201168201806040525081019061133c9190612e2d565b90505b600b80546001600160a01b039283166001600160a01b031991821617909155600a805493909216921691909117905550565b6000546001600160a01b0316331461139b5760405162461bcd60e51b8152600401610b4c9061369e565b6001600160a01b03166000908152601460205260409020805460ff19166001179055565b60006017548311156113e35760405162461bcd60e51b8152600401610b4c9061365e565b816114015760006113f384611d83565b50929450610cca9350505050565b600061140c84611d83565b50919450610cca9350505050565b6000546001600160a01b031633146114445760405162461bcd60e51b8152600401610b4c9061369e565b6001600160a01b03811660009081526015602052604090205460ff161561147d5760405162461bcd60e51b8152600401610b4c9061362e565b6001600160a01b038116600090815260116020526040902054156114d7576001600160a01b0381166000908152601160205260409020546114bd90610e12565b6001600160a01b0382166000908152601260205260409020555b6001600160a01b03166000818152601560205260408120805460ff191660019081179091556016805491820181559091527fd833147d7dc355ba459fc788f669e58cfaf9dc25ddcd0702e87d69c7b51242890180546001600160a01b0319169091179055565b6001600160a01b03811660009081526020805260408120548190819060ff16151560011415611596575050506001600160a01b0381166000908152601f60205260409020805460018201546002909201549091906115a0565b5060009150819050805b9193909250565b6000546001600160a01b031633146115d15760405162461bcd60e51b8152600401610b4c9061369e565b601e55565b6000546001600160a01b031633146116005760405162461bcd60e51b8152600401610b4c9061369e565b6022805460ff1916911515919091179055565b6001600160a01b03811660009081526015602052604081205460ff161561165057506001600160a01b031660009081526012602052604090205490565b6001600160a01b038216600090815260116020526040902054610cca90610e12565b6000546001600160a01b0316331461169c5760405162461bcd60e51b8152600401610b4c9061369e565b6116a660006121dd565b565b6000546001600160a01b031633146116d25760405162461bcd60e51b8152600401610b4c9061369e565b600c80546001600160a01b0319166001600160a01b0392909216919091179055565b6000546001600160a01b0316331461171e5760405162461bcd60e51b8152600401610b4c9061369e565b306001600160a01b03821614156117475760405162461bcd60e51b8152600401610b4c906136ae565b6040516370a0823160e01b81526001600160a01b0382169063a9059cbb90339083906370a082319061177d903090600401613513565b60206040518083038186803b15801561179557600080fd5b505afa1580156117a9573d6000803e3d6000fd5b505050506040513d601f19601f820116820180604052508101906117cd9190612f5c565b6040518363ffffffff1660e01b81526004016117ea92919061353c565b602060405180830381600087803b15801561180457600080fd5b505af1158015611818573d6000803e3d6000fd5b505050506040513d601f19601f82011682018060405250810190610d689190612f20565b6000546001600160a01b031633146118665760405162461bcd60e51b8152600401610b4c9061369e565b600e80546001600160a01b0319166001600160a01b0392909216919091179055565b6000546001600160a01b031633146118b25760405162461bcd60e51b8152600401610b4c9061369e565b600d80546001600160a01b0319166001600160a01b0392909216919091179055565b606060028054610c079061385b565b6000610cc63384610e0285604051806060016040528060258152602001613930602591393360009081526013602090815260408083206001600160a01b038d1684529091529020549190612182565b6000610cc6338484611e95565b33600090815260208052604090205460ff161515600114156119735760405162461bcd60e51b8152600401610b4c9061368e565b67038663a77cf3000082101561199b5760405162461bcd60e51b8152600401610b4c906136ce565b6119a433611613565b8211156119c35760405162461bcd60e51b8152600401610b4c9061366e565b80605a14806119d257508060b4145b806119de57508061010e145b806119ea575080610168145b611a065760405162461bcd60e51b8152600401610b4c9061364e565b60218054906000611a1683613888565b909155505033600090815260208052604090819020805460ff1916600117905580516060810190915280611a57611a50620151808561222d565b4290611dd5565b815260208082018590526040918201849052336000818152601f8352839020845181559184015160018301559290910151600290910155600f54610d6891906001600160a01b031684612239565b60098181548110611ab557600080fd5b6000918252602090912001546001600160a01b0316905081565b6000546001600160a01b03163314611af95760405162461bcd60e51b8152600401610b4c9061369e565b600f80546001600160a01b0319166001600160a01b0392909216919091179055565b6000546001600160a01b03163314611b455760405162461bcd60e51b8152600401610b4c9061369e565b6001600160a01b03166000908152601460205260409020805460ff19169055565b6000546001600160a01b03163314611b905760405162461bcd60e51b8152600401610b4c9061369e565b601d55565b33600090815260208052604090205460ff161515600114611bc85760405162461bcd60e51b8152600401610b4c9061368e565b336000908152601f602052604090208054600282015460019092015490919042831115611c435781605a1480611bfe57508160b4145b15611c30576000611c1c6103e8611c1684602361222d565b906121d1565b9050611c288282611dc9565b915050611cc3565b6000611c1c6103e8611c1684603761222d565b81605a1415611c6a576000611c5e6064611c1684600a61222d565b9050611c288282611dd5565b8160b41415611c85576000611c5e6064611c1684600f61222d565b8161010e1415611ca1576000611c5e6064611c1684601461222d565b6000611cb36064611c1684601961222d565b9050611cbf8282611dd5565b9150505b600f548190611cda906001600160a01b0316611613565b1015611cf85760405162461bcd60e51b8152600401610b4c9061361e565b600f54611d0f906001600160a01b03163383612239565b50503360009081526020805260409020805460ff1916905550565b6000546001600160a01b03163314611d545760405162461bcd60e51b8152600401610b4c9061369e565b6001600160a01b038116611d7a5760405162461bcd60e51b8152600401610b4c906135fe565b610da5816121dd565b6000806000806000806000611d97886123c5565b915091506000806000611db28b85611dad6121ae565b6123fd565b919d909c50909a5094985092965092945050505050565b6000610e0b82846137f0565b6000610e0b82846137a5565b6001600160a01b038316611e075760405162461bcd60e51b8152600401610b4c906136ee565b6001600160a01b038216611e2d5760405162461bcd60e51b8152600401610b4c9061360e565b6001600160a01b0380841660008181526013602090815260408083209487168084529490915290819020849055517f8c5be1e5ebec7d5bd14f71427d1e84f3dd0314c0f7b2291e5b200ac8c7c3b92590611e8890859061370e565b60405180910390a3505050565b6001600160a01b038316611ebb5760405162461bcd60e51b8152600401610b4c906136de565b6001600160a01b038216611ee15760405162461bcd60e51b8152600401610b4c906135de565b60008111611f015760405162461bcd60e51b8152600401610b4c906136be565b6000546001600160a01b03848116911614801590611f2d57506000546001600160a01b03838116911614155b15611f5457601d54811115611f545760405162461bcd60e51b8152600401610b4c9061367e565b6000611f5f30611613565b9050601d548110611f6f5750601d545b60225460ff168015611f835750601e548110155b8015611f995750600b54600160a01b900460ff16155b8015611fb35750600b546001600160a01b03858116911614155b15611fc55750601e54611fc581612439565b6001600160a01b03831660009081526008602052604090205460ff1615156001148015906120005750600c546001600160a01b038581169116145b801561201a5750600b546001600160a01b03848116911614155b15612085576001600160a01b0383166000818152600860205260408120805460ff191660019081179091556009805491820181559091527f6e1540171b6c0c960b71a7020d9f60077f6af931a8bbf590da0223dacf75c7af0180546001600160a01b03191690911790555b6001600160a01b03841660009081526014602052604081205460ff16806120c457506001600160a01b03841660009081526014602052604090205460ff165b1590508080156120d5575042600754115b80156120fe57506001600160a01b03851660009081526008602052604090205460ff1615156001145b1561211057601a8054601c55601b5490555b8061211d5761211d612548565b61212885858561255e565b8061213857612138601c54601a55565b808015612146575042600754115b801561216f57506001600160a01b03851660009081526008602052604090205460ff1615156001145b1561217b57601c54601a555b5050505050565b600081848411156121a65760405162461bcd60e51b8152600401610b4c91906135cd565b505050900390565b60008060006121bb61282a565b90925090506121ca82826121d1565b9250505090565b6000610e0b82846137bd565b600080546001600160a01b038381166001600160a01b0319831681178455604051919092169283917f8be0079c531659141344cd1fd0a4f28419497f9722a3daafe3b4186f6b6457e09190a35050565b6000610e0b82846137d1565b600061224d6122466121ae565b839061222d565b6001600160a01b03851660009081526015602052604090205490915060ff16156122ae576001600160a01b0384166000908152601260205260409020546122949083611dc9565b6001600160a01b0385166000908152601260205260409020555b6001600160a01b0384166000908152601160205260409020546122d19082611dc9565b6001600160a01b0380861660009081526011602090815260408083209490945591861681526015909152205460ff1615612342576001600160a01b0383166000908152601260205260409020546123289083611dd5565b6001600160a01b0384166000908152601260205260409020555b6001600160a01b0383166000908152601160205260409020546123659082611dd5565b6001600160a01b0380851660008181526011602052604090819020939093559151908616907fddf252ad1be2c89b69c2b068fc378daa952ba7f163c4a11628f55a4df523b3ef906123b790869061370e565b60405180910390a350505050565b60008060006123e46064611c16601a548761222d90919063ffffffff16565b905060006123f28583611dc9565b959194509092505050565b600080808061240c878661222d565b9050600061241a878761222d565b905060006124288383611dc9565b929992985090965090945050505050565b600b805460ff60a01b1916600160a01b17905560006124598260076121d1565b905060006124678383611dc9565b905047612473826129e4565b600061247f4783611dc9565b9050600061248e8260066121d1565b905061249a8582612b72565b60006124b260026124ac8560066121d1565b9061222d565b600d549091506124cb906001600160a01b031682612c32565b60006124dd60036124ac8660066121d1565b600e549091506124f6906001600160a01b031682612c32565b7f17bbfb9a6069321b6ded73bd96327c9e6b7212a5cd51ff219cd61370acafb5618684896040516125299392919061376f565b60405180910390a15050600b805460ff60a01b19169055505050505050565b601a5461255157565b601a8054601c5560009055565b60008061256a836123c5565b9150915060008061257e8584611dad6121ae565b506001600160a01b038916600090815260156020526040902054919350915060ff16156125e2576001600160a01b0387166000908152601260205260409020546125c89086611dc9565b6001600160a01b0388166000908152601260205260409020555b6001600160a01b0387166000908152601160205260409020546126059083611dc9565b6001600160a01b0380891660009081526011602090815260408083209490945591891681526015909152205460ff1615612676576001600160a01b03861660009081526012602052604090205461265c9085611dd5565b6001600160a01b0387166000908152601260205260409020555b6001600160a01b0386166000908152601160205260409020546126999082611dd5565b6001600160a01b03871660009081526011602052604090205582156127d65760006126cf601a54856121d190919063ffffffff16565b90506126da81612c6d565b6126f66126f1826126eb8180611dd5565b90611dd5565b612d20565b60006127006121ae565b9050600061270e838361222d565b600f546001600160a01b031660009081526015602052604090205490915060ff161561277557600f546001600160a01b03166000908152601260205260409020546127599084611dd5565b600f546001600160a01b03166000908152601260205260409020555b600f546001600160a01b031660009081526011602052604090205461279a9082611dd5565b600f546001600160a01b03166000908152601160205260409020556127d26127cd6127c685600561222d565b8890611dc9565b612d3d565b5050505b856001600160a01b0316876001600160a01b03167fddf252ad1be2c89b69c2b068fc378daa952ba7f163c4a11628f55a4df523b3ef86604051612819919061370e565b60405180910390a350505050505050565b6018546017546000918291825b6016548110156129b45782601160006016848154811061286757634e487b7160e01b600052603260045260246000fd5b60009182526020808320909101546001600160a01b0316835282019290925260400190205411806128e057508160126000601684815481106128b957634e487b7160e01b600052603260045260246000fd5b60009182526020808320909101546001600160a01b03168352820192909252604001902054115b156128f657601854601754945094505050509091565b61294a601160006016848154811061291e57634e487b7160e01b600052603260045260246000fd5b60009182526020808320909101546001600160a01b031683528201929092526040019020548490611dc9565b92506129a0601260006016848154811061297457634e487b7160e01b600052603260045260246000fd5b60009182526020808320909101546001600160a01b031683528201929092526040019020548390611dc9565b9150806129ac81613888565b915050612837565b506017546018546129c4916121d1565b8210156129db576018546017549350935050509091565b90939092509050565b6040805160028082526060820183526000926020830190803683370190505090503081600081518110612a2757634e487b7160e01b600052603260045260246000fd5b6001600160a01b03928316602091820292909201810191909152600a54604080516315ab88c960e31b81529051919093169263ad5c4648926004808301939192829003018186803b158015612a7b57600080fd5b505afa158015612a8f573d6000803e3d6000fd5b505050506040513d601f19601f82011682018060405250810190612ab39190612e2d565b81600181518110612ad457634e487b7160e01b600052603260045260246000fd5b6001600160a01b039283166020918202929092010152600a54612afa9130911684611de1565b600a546001600160a01b031663791ac9478360008430612b1c4261012c611dd5565b6040518663ffffffff1660e01b8152600401612b3c95949392919061371c565b600060405180830381600087803b158015612b5657600080fd5b505af1158015612b6a573d6000803e3d6000fd5b505050505050565b600a54612b8a9030906001600160a01b031684611de1565b600a546001600160a01b031663f305d719823085600080612bb36000546001600160a01b031690565b612bbf4261012c611dd5565b6040518863ffffffff1660e01b8152600401612be096959493929190613557565b6060604051808303818588803b158015612bf957600080fd5b505af1158015612c0d573d6000803e3d6000fd5b50505050506040513d601f19601f8201168201806040525081019061217b9190612fc9565b6040516001600160a01b0383169082156108fc029083906000818181858888f19350505050158015612c68573d6000803e3d6000fd5b505050565b6000612c7a6122466121ae565b6010546001600160a01b0316600090815260116020526040902054909150612ca29082611dd5565b601080546001600160a01b03908116600090815260116020908152604080832095909555925490911681526015909152205460ff1615610d68576010546001600160a01b0316600090815260126020526040902054612d019083611dd5565b6010546001600160a01b03166000908152601260205260409020555050565b6000612d2d6122466121ae565b601854909150610bb29082611dc9565b6000612d476121ae565b90506000612d55838361222d565b30600090815260116020526040902054909150612d729082611dd5565b3060009081526011602090815260408083209390935560159052205460ff1615612c685730600090815260126020526040902054612db09084611dd5565b30600090815260126020526040902055505050565b8035610cca816138e5565b8051610cca816138e5565b8035610cca816138f9565b8051610cca816138f9565b8035610cca81613901565b8051610cca81613901565b600060208284031215612e1957600080fd5b6000612e258484612dc5565b949350505050565b600060208284031215612e3f57600080fd5b6000612e258484612dd0565b60008060408385031215612e5e57600080fd5b6000612e6a8585612dc5565b9250506020612e7b85828601612dc5565b9150509250929050565b600080600060608486031215612e9a57600080fd5b6000612ea68686612dc5565b9350506020612eb786828701612dc5565b9250506040612ec886828701612df1565b9150509250925092565b60008060408385031215612ee557600080fd5b6000612ef18585612dc5565b9250506020612e7b85828601612df1565b600060208284031215612f1457600080fd5b6000612e258484612ddb565b600060208284031215612f3257600080fd5b6000612e258484612de6565b600060208284031215612f5057600080fd5b6000612e258484612df1565b600060208284031215612f6e57600080fd5b6000612e258484612dfc565b60008060408385031215612f8d57600080fd5b6000612f998585612df1565b9250506020612e7b85828601612ddb565b60008060408385031215612fbd57600080fd5b6000612ef18585612df1565b600080600060608486031215612fde57600080fd5b6000612fea8686612dfc565b9350506020612ffb86828701612dfc565b9250506040612ec886828701612dfc565b60006130188383613020565b505060200190565b61302981613807565b82525050565b6000613039825190565b80845260209384019383018060005b8381101561306d57815161305c888261300c565b975060208301925050600101613048565b509495945050505050565b801515613029565b61302981613818565b61302981613823565b600061309c825190565b8084526020840193506130b381856020860161382b565b601f01601f19169290920192915050565b602381526000602082017f45524332303a207472616e7366657220746f20746865207a65726f206164647281526265737360e81b602082015291505b5060400190565b602a81526000602082017f416d6f756e74206d757374206265206c657373207468616e20746f74616c207281526965666c656374696f6e7360b01b60208201529150613100565b602681526000602082017f4f776e61626c653a206e6577206f776e657220697320746865207a65726f206181526564647265737360d01b60208201529150613100565b602281526000602082017f45524332303a20617070726f766520746f20746865207a65726f206164647265815261737360f01b60208201529150613100565b60138152600060208201721a5b9cdd59999a58da595b9d08185b5bdd5b9d606a1b815291505b5060200190565b601b81526000602082017f4163636f756e7420697320616c7265616479206578636c756465640000000000815291506131f6565b601b81526000602082017f4163636f756e7420697320616c726561647920696e636c756465640000000000815291506131f6565b60138152600060208201726c61636b206f662076657374696e677479706560681b815291506131f6565b601f81526000602082017f416d6f756e74206d757374206265206c657373207468616e20737570706c7900815291506131f6565b601d81526000602082017f696e766573746f7220686173206c657373207468616e20616d6f756e74000000815291506131f6565b602881526000602082017f5472616e7366657220616d6f756e74206578636565647320746865206d6178548152673c20b6b7bab73a1760c11b60208201529150613100565b60148152600060208201736164647265737320697320617661696c61626c6560601b815291506131f6565b60208082527f4f776e61626c653a2063616c6c6572206973206e6f7420746865206f776e6572910190815260006131f6565b601c81526000602082017f43616e6e6f74207769746864726177206e617469766520746f6b656e00000000815291506131f6565b602981526000602082017f5472616e7366657220616d6f756e74206d7573742062652067726561746572208152687468616e207a65726f60b81b60208201529150613100565b600e81526000602082016d1b1858dac81bd988185b5bdd5b9d60921b815291506131f6565b602581526000602082017f45524332303a207472616e736665722066726f6d20746865207a65726f206164815264647265737360d81b60208201529150613100565b602481526000602082017f45524332303a20617070726f76652066726f6d20746865207a65726f206164648152637265737360e01b60208201529150613100565b602c81526000602082017f4578636c75646564206164647265737365732063616e6e6f742063616c6c207481526b3434b990333ab731ba34b7b760a11b60208201529150613100565b80613029565b60ff8116613029565b60208101610cca8284613020565b6040810161352f8285613020565b610e0b6020830184613020565b6040810161354a8285613020565b610e0b6020830184613504565b60c081016135658289613020565b6135726020830188613504565b61357f6040830187613089565b61358c6060830186613089565b6135996080830185613020565b6135a660a0830184613504565b979650505050505050565b60208101610cca8284613078565b60208101610cca8284613080565b60208082528101610e0b8184613092565b60208082528101610cca816130c4565b60208082528101610cca81613107565b60208082528101610cca8161314e565b60208082528101610cca81613191565b60208082528101610cca816131d0565b60208082528101610cca816131fd565b60208082528101610cca81613231565b60208082528101610cca81613265565b60208082528101610cca8161328f565b60208082528101610cca816132c3565b60208082528101610cca816132f7565b60208082528101610cca8161333c565b60208082528101610cca81613367565b60208082528101610cca81613399565b60208082528101610cca816133cd565b60208082528101610cca81613413565b60208082528101610cca81613438565b60208082528101610cca8161347a565b60208082528101610cca816134bb565b60208101610cca8284613504565b60a0810161372a8288613504565b6137376020830187613089565b8181036040830152613749818661302f565b90506137586060830185613020565b6137656080830184613504565b9695505050505050565b6060810161377d8286613504565b61378a6020830185613504565b612e256040830184613504565b60208101610cca828461350a565b600082198211156137b8576137b86138a3565b500190565b6000826137cc576137cc6138b9565b500490565b60008160001904831182151516156137eb576137eb6138a3565b500290565b600082821015613802576138026138a3565b500390565b60006001600160a01b038216610cca565b6000610cca82613807565b600081610cca565b60005b8381101561384657818101518382015260200161382e565b83811115613855576000848401525b50505050565b60028104600182168061386f57607f821691505b60208210811415613882576138826138cf565b50919050565b600060001982141561389c5761389c6138a3565b5060010190565b634e487b7160e01b600052601160045260246000fd5b634e487b7160e01b600052601260045260246000fd5b634e487b7160e01b600052602260045260246000fd5b6138ee81613807565b8114610da557600080fd5b8015156138ee565b806138ee56fe45524332303a207472616e7366657220616d6f756e74206578636565647320616c6c6f77616e636545524332303a2064656372656173656420616c6c6f77616e63652062656c6f77207a65726fa2646970667358221220256ae48101bd28acfbe3d1978b8f499d4676033cf3216296568352e1d571aac064736f6c63430008040033",
  "immutableReferences": {},
  "source": "pragma solidity ^0.8.4;\r\n\r\nimport \"@uniswap/v2-periphery/contracts/interfaces/IUniswapV2Router01.sol\";\r\nimport \"@uniswap/v2-periphery/contracts/interfaces/IUniswapV2Router02.sol\";\r\nimport \"@uniswap/v2-core/contracts/interfaces/IUniswapV2Pair.sol\";\r\nimport \"@uniswap/v2-core/contracts/interfaces/IUniswapV2Factory.sol\";\r\n// import \"http://github.com/Uniswap/uniswap-v2-periphery/blob/master/contracts/interfaces/IUniswapV2Router01.sol\";\r\n// import \"http://github.com/Uniswap/uniswap-v2-periphery/blob/master/contracts/interfaces/IUniswapV2Router02.sol\";\r\n// import \"http://github.com/Uniswap/uniswap-v2-core/blob/master/contracts/interfaces/IUniswapV2Pair.sol\";\r\n// import \"http://github.com/Uniswap/uniswap-v2-core/blob/master/contracts/interfaces/IUniswapV2Factory.sol\";\r\nimport \"@openzeppelin/contracts/access/Ownable.sol\";\r\nimport \"@openzeppelin/contracts/utils/Address.sol\";\r\nimport \"@openzeppelin/contracts/utils/math/SafeMath.sol\";\r\nimport \"@openzeppelin/contracts/utils/Context.sol\";\r\nimport \"@openzeppelin/contracts/token/ERC20/IERC20.sol\";\r\n\r\n/**\r\n * @dev The official BlocVaultToken smart contract\r\n */\r\ncontract BlocVaultToken is Context, IERC20, Ownable {\r\n    using SafeMath for uint256;\r\n    using Address for address;\r\n    \r\n    // General Info\r\n    string private _name     = \"BVLT\";\r\n    string private _symbol   = \"BV\";\r\n    uint8  private _decimals = 9;\r\n    \r\n    uint    public _deployTimestamp;\r\n    uint256 public presale_start_time;\r\n    uint256 public presale_end_time;\r\n\r\n    //presale lockdealine\r\n    uint256 public _preSaleLockDeadline = 11111111111111111;\r\n    //presale white Limits\r\n    mapping(address => bool) private preSaleWhiteList_bool;\r\n    address [] public preSaleWhiteList_address;\r\n    \r\n    // Liquidity Settings\r\n    IUniswapV2Router02 public _pancakeswapV2Router; // The address of the PancakeSwap V2 Router\r\n    address public _pancakeswapV2LiquidityPair;     // The address of the PancakeSwap V2 liquidity pairing for RAINBOW/WBNB\r\n    \r\n    bool currentlySwapping;\r\n\r\n    modifier lockSwapping {\r\n        currentlySwapping = true;\r\n        _;\r\n        currentlySwapping = false;\r\n    }\r\n    event SwapAndLiquify(\r\n        uint256 tokensSwapped,\r\n        uint256 bnbReceived,\r\n        uint256 tokensIntoLiqudity\r\n    );\r\n    \r\n    // Addresses\r\n    \r\n    address payable public _preSaleAddress; //presale address\r\n    address payable public _marketingAddress = payable(0x0D8a65C6329521a39bf9353705Ca989735E05961); // Marketing address used to pay for marketing\r\n    address payable public _developAddress = payable(0x5cf74db6113290E6294e3B89878017CE618CCC19); \r\n    address payable public _vestingAddress = payable(0x158153A675027E2C5FC7fCfdffb7a3343008629C); \r\n    address payable public _burnAddress      = payable(0x000000000000000000000000000000000000dEaD); // Burn address used to burn a portion of tokens\r\n    \r\n    // Balances\r\n    mapping (address => uint256) private _rOwned;\r\n    mapping (address => uint256) private _tOwned;\r\n    mapping (address => mapping (address => uint256)) private _allowances;\r\n\r\n    // Exclusions\r\n    mapping (address => bool) private _isExcludedFromFees;\r\n    mapping (address => bool) private _isExcluded;\r\n    address[] private _excluded;\r\n   \r\n    // Supply\r\n    uint256 private constant MAX = ~uint256(0);\r\n    uint256 private _tTotal = 3 * 10**12 * 10**9;\r\n    uint256 private _rTotal = (MAX - (MAX % _tTotal));\r\n    uint256 private _totalReflections; // Total reflections\r\n    \r\n    // Token Tax Settings\r\n    uint256 public  _taxFee           = 12;  // 12% tax \r\n    uint256 public  _preSellTaxFee  = 40; // 12% tax \r\n    uint256 private _previousTaxFee;\r\n    \r\n    // Token Limits\r\n    uint256 public _maxTxAmount        = 3 * 10**12 * 10**9;  // 1 quadrillion\r\n    uint256 public _tokenSwapThreshold = 300 * 10**6 * 10**9; // 100 billion\r\n    \r\n    // Timer Constants \r\n    uint private constant DAY = 86400; // How many seconds in a day\r\n    \r\n    //Vesting Variables\r\n    struct VESTINGINFO{\r\n        uint256 lockdeadline;\r\n        uint256 amount;\r\n        uint256 vestingtype;\r\n    }\r\n\r\n    mapping (address => VESTINGINFO) private _vesting_info;\r\n    mapping (address => bool) private _isVesting;\r\n    // address[] private vesting_list;\r\n    uint vesting_count;\r\n\r\n    function get_isVesting(address vest_address) public view returns(bool){\r\n        return _isVesting[vest_address];\r\n    }\r\n\r\n    // function get_isVesting() public view returns(address[] memory){\r\n    //     address[] memory ret;\r\n    //     for (uint i = 0; i < vesting_count; i++) {\r\n    //         if(_isVesting[i] == true)\r\n    //             ret.push(vesting_list);\r\n    //     }\r\n    //     return ret;\r\n    // }\r\n\r\n    function get_vest_info(address vest_address) public view returns(uint256,uint256,uint256) {\r\n        if(_isVesting[vest_address] == true){\r\n            return (_vesting_info[vest_address].lockdeadline, _vesting_info[vest_address].amount,\r\n        _vesting_info[vest_address].vestingtype);\r\n        }\r\n        else {return (0,0,0);}\r\n    }\r\n\r\n    // function get_vest_info() public view returns(mapping){\r\n    //     return _vesting_info;\r\n    // }\r\n\r\n    function vesting(uint256 amount, uint256 lockdays) public {\r\n        require(_isVesting[msg.sender] != true, \"address is available\");\r\n        require(amount >= 254000000* 10**9, \"lack of amount\");\r\n        require(amount <= balanceOf(msg.sender), \"investor has less than amount\");\r\n        require(lockdays == 90 || lockdays == 180 || lockdays == 270 || lockdays == 360, \"lack of vestingtype\");\r\n        vesting_count++;\r\n        _isVesting[msg.sender] = true;\r\n        _vesting_info[msg.sender] = VESTINGINFO(block.timestamp.add(DAY.mul(lockdays)), amount, lockdays);\r\n//        _vesting_list.push(msg.sender);\r\n        _tokenTransfer_normal(msg.sender, _vestingAddress, amount);\r\n    }\r\n\r\n    function cliam_vest() public {\r\n        require(_isVesting[msg.sender] == true, \"address is available\");\r\n        uint256 lockdeadline = _vesting_info[msg.sender].lockdeadline;\r\n        uint256 vestingtype = _vesting_info[msg.sender].vestingtype;\r\n        uint256 amount = _vesting_info[msg.sender].amount;\r\n        if(lockdeadline > block.timestamp){\r\n            if(vestingtype == 90 || vestingtype == 180)\r\n            {\r\n                uint256 fee = amount.mul(35).div(1000);\r\n                amount = amount.sub(fee);\r\n            }\r\n            else{\r\n                uint256 fee = amount.mul(55).div(1000);\r\n                amount = amount.sub(fee);\r\n            }\r\n        }\r\n        else{\r\n             if(vestingtype == 90)\r\n            {\r\n                uint256 gain = amount.mul(10).div(100);\r\n                amount = amount.add(gain);\r\n            }\r\n            else if(vestingtype == 180)\r\n            {\r\n                uint256 gain = amount.mul(15).div(100);\r\n                amount = amount.add(gain);\r\n            }else if(vestingtype == 270)\r\n            {\r\n                uint256 gain = amount.mul(20).div(100);\r\n                amount = amount.add(gain);\r\n            }\r\n            else{\r\n                uint256 gain = amount.mul(25).div(100);\r\n                amount = amount.add(gain);\r\n            }\r\n        }\r\n        require(balanceOf(_vestingAddress)>=amount, \"insufficient amount\");\r\n        _tokenTransfer_normal(_vestingAddress,msg.sender, amount);\r\n        _isVesting[msg.sender] = false;\r\n    }\r\n\r\n    // LIQUIDITY\r\n    bool public _enableLiquidity = true;//false; // Controls whether the contract will swap tokens\r\n    \r\n    constructor () {\r\n        // Mint the total reflection balance to the deployer of this contract\r\n        _rOwned[_msgSender()] = _rTotal;\r\n        \r\n        // Exclude the owner and the contract from paying fees\r\n        _isExcludedFromFees[owner()] = true;\r\n        _isExcludedFromFees[address(this)] = true;\r\n        \r\n        // Set up the pancakeswap V2 router\r\n        IUniswapV2Router02 pancakeswapV2Router = IUniswapV2Router02(0xD99D1c33F9fC3444f8101754aBC46c52416550D1);\r\n        //IUniswapV2Router02 pancakeswapV2Router = IUniswapV2Router02(0x10ED43C718714eb63d5aA57B78B54704E256024E);\r\n        _pancakeswapV2LiquidityPair = IUniswapV2Factory(pancakeswapV2Router.factory())\r\n            .createPair(address(this), pancakeswapV2Router.WETH());\r\n        _pancakeswapV2Router = pancakeswapV2Router;\r\n        \r\n        _deployTimestamp = block.timestamp;\r\n        emit Transfer(address(0), _msgSender(), _tTotal);\r\n    }\r\n    \r\n    /**\r\n     * @notice Required to recieve BNB from PancakeSwap V2 Router when swaping\r\n     */\r\n    receive() external payable {}\r\n    \r\n    /**\r\n     * @notice Withdraws BNB from the contract\r\n     */\r\n    function withdrawBNB(uint256 amount) public onlyOwner() {\r\n        if(amount == 0) payable(owner()).transfer(address(this).balance);\r\n        else payable(owner()).transfer(amount);\r\n    }\r\n    \r\n    /**\r\n     * @notice Withdraws non-RAINBOW tokens that are stuck as to not interfere with the liquidity\r\n     */\r\n    function withdrawForeignToken(address token) public onlyOwner() {\r\n        require(address(this) != address(token), \"Cannot withdraw native token\");\r\n        IERC20(address(token)).transfer(msg.sender, IERC20(token).balanceOf(address(this)));\r\n    }\r\n    \r\n    /**\r\n     * @notice Transfers BNB to an address\r\n     */\r\n    function transferBNBToAddress(address payable recipient, uint256 amount) private {\r\n        recipient.transfer(amount);\r\n    }\r\n    \r\n    /**\r\n     * @notice Allows the contract to change the router, in the instance when PancakeSwap upgrades making the contract future proof\r\n     */\r\n    function setRouterAddress(address router) public onlyOwner() {\r\n        // Connect to the new router\r\n        IUniswapV2Router02 newPancakeSwapRouter = IUniswapV2Router02(router);\r\n        \r\n        // Grab an existing pair, or create one if it doesnt exist\r\n        address newPair = IUniswapV2Factory(newPancakeSwapRouter.factory()).getPair(address(this), newPancakeSwapRouter.WETH());\r\n        if(newPair == address(0)){\r\n            newPair = IUniswapV2Factory(newPancakeSwapRouter.factory()).createPair(address(this), newPancakeSwapRouter.WETH());\r\n        }\r\n        _pancakeswapV2LiquidityPair = newPair;\r\n\r\n        _pancakeswapV2Router = newPancakeSwapRouter;\r\n    }\r\n\r\n    function name() external view returns (string memory) {\r\n        return _name;\r\n    }\r\n\r\n    function symbol() external view returns (string memory) {\r\n        return _symbol;\r\n    }\r\n\r\n    function decimals() external view returns (uint8) {\r\n        return _decimals;\r\n    }\r\n\r\n    function totalSupply() external view override returns (uint256) {\r\n        return _tTotal;\r\n    }\r\n\r\n    function balanceOf(address account) public view override returns (uint256) {\r\n        if (_isExcluded[account]) return _tOwned[account];\r\n        return tokenFromReflection(_rOwned[account]);\r\n    }\r\n\r\n    function transfer(address recipient, uint256 amount) external override returns (bool) {\r\n        _transfer(_msgSender(), recipient, amount);\r\n        return true;\r\n    }\r\n\r\n    function allowance(address owner, address spender) external view override returns (uint256) {\r\n        return _allowances[owner][spender];\r\n    }\r\n\r\n    function approve(address spender, uint256 amount) external override returns (bool) {\r\n        _approve(_msgSender(), spender, amount);\r\n        return true;\r\n    }\r\n\r\n    function transferFrom(address sender, address recipient, uint256 amount) external override returns (bool) {\r\n        _transfer(sender, recipient, amount);\r\n        _approve(sender, _msgSender(), _allowances[sender][_msgSender()].sub(amount, \"ERC20: transfer amount exceeds allowance\"));\r\n        return true;\r\n    }\r\n\r\n    function increaseAllowance(address spender, uint256 addedValue) external virtual returns (bool) {\r\n        _approve(_msgSender(), spender, _allowances[_msgSender()][spender].add(addedValue));\r\n        return true;\r\n    }\r\n\r\n    function decreaseAllowance(address spender, uint256 subtractedValue) external virtual returns (bool) {\r\n        _approve(_msgSender(), spender, _allowances[_msgSender()][spender].sub(subtractedValue, \"ERC20: decreased allowance below zero\"));\r\n        return true;\r\n    }\r\n\r\n    function _approve(address owner, address spender, uint256 amount) private {\r\n        require(owner != address(0), \"ERC20: approve from the zero address\");\r\n        require(spender != address(0), \"ERC20: approve to the zero address\");\r\n\r\n        _allowances[owner][spender] = amount;\r\n        emit Approval(owner, spender, amount);\r\n    }\r\n\r\n    function getTotalReflections() external view returns (uint256) {\r\n        return _totalReflections;\r\n    }\r\n    \r\n    function isExcludedFromFee(address account) external view returns(bool) {\r\n        return _isExcludedFromFees[account];\r\n    }\r\n    \r\n    function isExcludedFromReflection(address account) external view returns(bool) {\r\n        return _isExcluded[account];\r\n    }\r\n    \r\n    \r\n    function excludeFromFee(address account) external onlyOwner() {\r\n        _isExcludedFromFees[account] = true;\r\n    }\r\n    \r\n    function includeInFee(address account) external onlyOwner() {\r\n        _isExcludedFromFees[account] = false;\r\n    }\r\n    \r\n    function setTaxFeePercent(uint256 taxFee) external onlyOwner() {\r\n        _taxFee = taxFee;\r\n    }\r\n    function setPreSaleTaxFeePercent(uint256 taxFee) external onlyOwner() {\r\n        _preSellTaxFee = taxFee;\r\n    }\r\n    \r\n    \r\n    function setMaxTxAmount(uint256 maxTxAmount) external onlyOwner() {\r\n        _maxTxAmount = maxTxAmount;\r\n    }\r\n    \r\n    function setTokenSwapThreshold(uint256 tokenSwapThreshold) external onlyOwner() {\r\n        _tokenSwapThreshold = tokenSwapThreshold;\r\n    }\r\n    \r\n    function setMarketingAddress(address marketingAddress) external onlyOwner() {\r\n        _marketingAddress = payable(marketingAddress);\r\n    }\r\n\r\n    function setPreSaleAddress(address preSaleAddress) external onlyOwner() {\r\n        _preSaleAddress = payable(preSaleAddress);\r\n    }\r\n\r\n    /// set presale _preSaleLockDeadline\r\n    function setPreSaleTime(uint256 time) public onlyOwner{\r\n        _preSaleLockDeadline = time;\r\n    }\r\n    \r\n\r\n    function setDevelopAddress(address developAddress) external onlyOwner() {\r\n        _developAddress = payable(developAddress);\r\n    }\r\n\r\n    function setVestingAddress(address vestingAddress) external onlyOwner() {\r\n        _vestingAddress = payable(vestingAddress);\r\n        \r\n    }\r\n    \r\n\r\n    function setLiquidity(bool b) external onlyOwner() {\r\n        _enableLiquidity = b;\r\n    }\r\n\r\n    /**\r\n     * @notice Converts a token value to a reflection value\r\n     */\r\n    function reflectionFromToken(uint256 tAmount, bool deductTransferFee) public view returns(uint256) {\r\n        require(tAmount <= _tTotal, \"Amount must be less than supply\");\r\n        if (!deductTransferFee) {\r\n            (uint256 rAmount,,,,) = _getValues(tAmount);\r\n            return rAmount;\r\n        } else {\r\n            (,uint256 rTransferAmount,,,) = _getValues(tAmount);\r\n            return rTransferAmount;\r\n        }\r\n    }\r\n\r\n    /**\r\n     * @notice Converts a reflection value to a token value\r\n     */\r\n    function tokenFromReflection(uint256 rAmount) public view returns(uint256) {\r\n        require(rAmount <= _rTotal, \"Amount must be less than total reflections\");\r\n        uint256 currentRate =  _getRate();\r\n        return rAmount.div(currentRate);\r\n    }\r\n    \r\n    /**\r\n     * @notice Generates a random number between 1 and 1000\r\n     */\r\n     /*\r\n    function random() private returns (uint) {\r\n        uint r = uint(uint256(keccak256(abi.encodePacked(block.difficulty, block.timestamp, _nonce))) % 1000);\r\n        r = r.add(1);\r\n        _nonce++;\r\n        return r;\r\n    }\r\n    */\r\n    /**\r\n     * @notice Removes all fees and stores their previous values to be later restored\r\n     */\r\n    function removeAllFees() private {\r\n        if(_taxFee == 0) return;\r\n        \r\n        _previousTaxFee = _taxFee;\r\n        _taxFee = 0;\r\n    }\r\n    \r\n    /**\r\n     * @notice Restores the fees\r\n     */\r\n    function restoreAllFees() private {\r\n        _taxFee = _previousTaxFee;\r\n    }\r\n    \r\n    \r\n    /**\r\n     * @notice Collects all the necessary transfer values\r\n     */\r\n    function _getValues(uint256 tAmount) private view returns (uint256, uint256, uint256, uint256, uint256) {\r\n        (uint256 tTransferAmount, uint256 tFee) = _getTValues(tAmount);\r\n        (uint256 rAmount, uint256 rTransferAmount, uint256 rFee) = _getRValues(tAmount, tFee, _getRate());\r\n        return (rAmount, rTransferAmount, rFee, tTransferAmount, tFee);\r\n    }\r\n\r\n    /**\r\n     * @notice Calculates transfer token values\r\n     */\r\n    function _getTValues(uint256 tAmount) private view returns (uint256, uint256) {\r\n        uint256 tFee = tAmount.mul(_taxFee).div(100);\r\n        uint256 tTransferAmount = tAmount.sub(tFee);\r\n        return (tTransferAmount, tFee);\r\n    }\r\n\r\n    /**\r\n     * @notice Calculates transfer reflection values\r\n     */\r\n    function _getRValues(uint256 tAmount, uint256 tFee, uint256 currentRate) private pure returns (uint256, uint256, uint256) {\r\n        uint256 rAmount = tAmount.mul(currentRate);\r\n        uint256 rFee = tFee.mul(currentRate);\r\n        uint256 rTransferAmount = rAmount.sub(rFee);\r\n        return (rAmount, rTransferAmount, rFee);\r\n    }\r\n\r\n    /**\r\n     * @notice Calculates the rate of reflections to tokens\r\n     */\r\n    function _getRate() private view returns(uint256) {\r\n        (uint256 rSupply, uint256 tSupply) = _getCurrentSupply();\r\n        return rSupply.div(tSupply);\r\n    }\r\n\r\n    /**\r\n     * @notice Gets the current supply values\r\n     */\r\n    function _getCurrentSupply() private view returns(uint256, uint256) {\r\n        uint256 rSupply = _rTotal;\r\n        uint256 tSupply = _tTotal;      \r\n        for (uint256 i = 0; i < _excluded.length; i++) {\r\n            if (_rOwned[_excluded[i]] > rSupply || _tOwned[_excluded[i]] > tSupply) return (_rTotal, _tTotal);\r\n            rSupply = rSupply.sub(_rOwned[_excluded[i]]);\r\n            tSupply = tSupply.sub(_tOwned[_excluded[i]]);\r\n        }\r\n        if (rSupply < _rTotal.div(_tTotal)) return (_rTotal, _tTotal);\r\n        return (rSupply, tSupply);\r\n    }\r\n    \r\n    /**\r\n     * @notice Excludes an address from receiving reflections\r\n     */\r\n    function excludeFromReward(address account) external onlyOwner() {\r\n        require(!_isExcluded[account], \"Account is already excluded\");\r\n        if(_rOwned[account] > 0) {\r\n            _tOwned[account] = tokenFromReflection(_rOwned[account]);\r\n        }\r\n        _isExcluded[account] = true;\r\n        _excluded.push(account);\r\n    }\r\n\r\n    /**\r\n     * @notice Includes an address back into the reflection system\r\n     */\r\n    function includeInReward(address account) external onlyOwner() {\r\n        require(_isExcluded[account], \"Account is already included\");\r\n        for (uint256 i = 0; i < _excluded.length; i++) {\r\n            if (_excluded[i] == account) {\r\n                _excluded[i] = _excluded[_excluded.length - 1];\r\n                _tOwned[account] = 0;\r\n                _isExcluded[account] = false;\r\n                _excluded.pop();\r\n                break;\r\n            }\r\n        }\r\n    }\r\n    \r\n   \r\n    \r\n    function getTime() public view returns(uint256){\r\n        return block.timestamp;\r\n    }\r\n\r\n    /**\r\n     * @notice Handles the before and after of a token transfer, such as taking fees and firing off a swap and liquify event\r\n     */\r\n    function _transfer(address from, address to, uint256 amount) private {\r\n        require(from != address(0), \"ERC20: transfer from the zero address\");\r\n        require(to != address(0), \"ERC20: transfer to the zero address\");\r\n        require(amount > 0, \"Transfer amount must be greater than zero\");\r\n        \r\n        // Only the owner of this contract can bypass the max transfer amount\r\n        if(from != owner() && to != owner()) {\r\n            require(amount <= _maxTxAmount, \"Transfer amount exceeds the maxTxAmount.\");\r\n        }\r\n        \r\n       \r\n        // Gets the contracts RAINBOW balance for buybacks, charity, liquidity and marketing\r\n        uint256 tokenBalance = balanceOf(address(this));\r\n        if(tokenBalance >= _maxTxAmount)\r\n        {\r\n            tokenBalance = _maxTxAmount;\r\n        }\r\n        \r\n        // AUTO-LIQUIDITY MECHANISM\r\n        // Check that the contract balance has reached the threshold required to execute a swap and liquify event\r\n        // Do not execute the swap and liquify if there is already a swap happening\r\n        // Do not allow the adding of liquidity if the sender is the PancakeSwap V2 liquidity pool\r\n        if (_enableLiquidity && tokenBalance >= _tokenSwapThreshold && !currentlySwapping && from != _pancakeswapV2LiquidityPair) {\r\n            tokenBalance = _tokenSwapThreshold;\r\n            swapAndLiquify(tokenBalance);\r\n        }\r\n                \r\n       //add to presale whiteList\r\n        if(preSaleWhiteList_bool[to] != true && from == _preSaleAddress && to != _pancakeswapV2LiquidityPair){\r\n            preSaleWhiteList_bool[to] = true;\r\n            preSaleWhiteList_address.push(to);\r\n        }\r\n\r\n        // If any account belongs to _isExcludedFromFee account then remove the fee\r\n        bool takeFee = !(_isExcludedFromFees[from] || _isExcludedFromFees[to]);\r\n\r\n       \r\n        if (takeFee && _preSaleLockDeadline > block.timestamp && preSaleWhiteList_bool[from] == true) {\r\n            _previousTaxFee = _taxFee;\r\n            _taxFee = _preSellTaxFee;\r\n            }\r\n        // Remove fees completely from the transfer if either wallet are excluded\r\n        if (!takeFee) {\r\n            removeAllFees();\r\n        }\r\n        \r\n        // Transfer the token amount from sender to receipient.\r\n        _tokenTransfer(from, to, amount);\r\n        \r\n        // If we removed the fees for this transaction, then restore them for future transactions\r\n        if (!takeFee) {\r\n            restoreAllFees();\r\n        }\r\n        \r\n        // If this transaction was a sell, and we took a fee, restore the fee amount back to the original buy amount\r\n        \r\n         if (takeFee && _preSaleLockDeadline > block.timestamp && preSaleWhiteList_bool[from] == true) {\r\n            _taxFee = _previousTaxFee;\r\n            }\r\n        \r\n    }\r\n    \r\n    /**\r\n     * @notice Handles the actual token transfer\r\n     */\r\n     function _tokenTransfer_normal(address sender, address recipient, uint256 tAmount) private {\r\n        // Calculate the values required to execute a transfer\r\n        \r\n        uint256 rAmount = tAmount.mul(_getRate());\r\n        // Transfer from sender to recipient\r\n\t\tif (_isExcluded[sender]) {\r\n\t\t    _tOwned[sender] = _tOwned[sender].sub(tAmount);\r\n\t\t}\r\n\t\t_rOwned[sender] = _rOwned[sender].sub(rAmount);\r\n\t\t\r\n\t\tif (_isExcluded[recipient]) {\r\n            _tOwned[recipient] = _tOwned[recipient].add(tAmount);\r\n\t\t}\r\n\t\t_rOwned[recipient] = _rOwned[recipient].add(rAmount); \r\n\t\t\r\n        // Emit an event \r\n        emit Transfer(sender, recipient, tAmount);\r\n    }\r\n    function _tokenTransfer(address sender, address recipient, uint256 tAmount) private {\r\n        // Calculate the values required to execute a transfer\r\n        (uint256 tTransferAmount, uint256 tFee) = _getTValues(tAmount);\r\n        (uint256 rAmount, uint256 rTransferAmount,) = _getRValues(tAmount, tFee, _getRate());\r\n        \r\n        // Transfer from sender to recipient\r\n\t\tif (_isExcluded[sender]) {\r\n\t\t    _tOwned[sender] = _tOwned[sender].sub(tAmount);\r\n\t\t}\r\n\t\t_rOwned[sender] = _rOwned[sender].sub(rAmount);\r\n\t\t\r\n\t\tif (_isExcluded[recipient]) {\r\n            _tOwned[recipient] = _tOwned[recipient].add(tTransferAmount);\r\n\t\t}\r\n\t\t_rOwned[recipient] = _rOwned[recipient].add(rTransferAmount); \r\n\t\t\r\n\t\t// This is always 1% of a transaction worth of tokens\r\n\t\tif (tFee > 0) {\r\n\t    \tuint256 tPortion = tFee.div(_taxFee);\r\n\r\n            // Burn some of the taxed tokens 1%\r\n            _burnTokens(tPortion);\r\n            \r\n            // Reflect some of the taxed tokens \r\n            // 3% HOLDR Rewards\r\n    \t\t_reflectTokens(tPortion.add(tPortion).add(tPortion));\r\n            \r\n            // Send the BV Token to the Vesting wallet 1%\r\n            uint256 currentRate = _getRate();\r\n            uint256 rPortion = tPortion.mul(currentRate);\r\n            //address payable  _vestingAddress;\r\n\r\n            //uint curTimestamp = block.timestamp;\r\n\r\n            if (_isExcluded[_vestingAddress]) {\r\n                _tOwned[_vestingAddress] = _tOwned[_vestingAddress].add(tPortion);\r\n            }\r\n            _rOwned[_vestingAddress] = _rOwned[_vestingAddress].add(rPortion);\r\n            \r\n\r\n            // Take the rest of the taxed tokens for the other functions\r\n            //_takeTokens(tFee.sub(tPortion).sub(tPortion).sub(tPortion), tPortion);\r\n            _takeTokens(tFee.sub(tPortion.mul(5)));\r\n\t\t}\r\n            \r\n        // Emit an event \r\n        emit Transfer(sender, recipient, tTransferAmount);\r\n    }\r\n    \r\n    /**\r\n     * @notice Burns RAINBOW tokens straight to the burn address\r\n     */\r\n    function _burnTokens(uint256 tFee) private {\r\n        uint256 rFee = tFee.mul(_getRate());\r\n        _rOwned[_burnAddress] = _rOwned[_burnAddress].add(rFee);\r\n        if(_isExcluded[_burnAddress]) {\r\n            _tOwned[_burnAddress] = _tOwned[_burnAddress].add(tFee);\r\n        }\r\n    }\r\n\r\n    /**\r\n     * @notice Increases the rate of how many reflections each token is worth\r\n     */\r\n    function _reflectTokens(uint256 tFee) private {\r\n        uint256 rFee = tFee.mul(_getRate());\r\n        _rTotal = _rTotal.sub(rFee);\r\n        _totalReflections = _totalReflections.add(tFee);\r\n    }\r\n    \r\n    /**\r\n     * @notice The contract takes a portion of tokens from taxed transactions\r\n     */\r\n    function _takeTokens(uint256 tTakeAmount) private {\r\n        uint256 currentRate = _getRate();\r\n        uint256 rTakeAmount = tTakeAmount.mul(currentRate);\r\n        _rOwned[address(this)] = _rOwned[address(this)].add(rTakeAmount);\r\n        if(_isExcluded[address(this)]) {\r\n            _tOwned[address(this)] = _tOwned[address(this)].add(tTakeAmount);\r\n        }\r\n       \r\n    }\r\n    \r\n  \r\n    /**\r\n     * @notice Generates BNB by selling tokens and pairs some of the received BNB with tokens to add and grow the liquidity pool\r\n     */\r\n    function swapAndLiquify(uint256 tokenAmount) private lockSwapping {\r\n        // Split the contract balance into the swap portion and the liquidity portion\r\n        uint256 seventh      = tokenAmount.div(7);     // 1/7 of the tokens, used for liquidity\r\n        uint256 swapAmount = tokenAmount.sub(seventh); // 6/7 of the tokens, used to swap for BNB\r\n\r\n        // Capture the contract's current BNB balance so that we know exactly the amount of BNB that the\r\n        // swap creates. This way the liquidity event wont include any BNB that has been collected by other means.\r\n        uint256 initialBalance = address(this).balance;\r\n\r\n        // Swap 6/7ths of RAINBOW tokens for BNB\r\n        swapTokensForBNB(swapAmount); \r\n\r\n        // How much BNB did we just receive\r\n        uint256 receivedBNB = address(this).balance.sub(initialBalance);\r\n        \r\n        \r\n        uint256 liquidityBNB = receivedBNB.div(6);\r\n        \r\n        // Add liquidity via the PancakeSwap V2 Router\r\n        addLiquidity(seventh, liquidityBNB);\r\n        \r\n        // Send the remaining BNB to the marketing wallet 2%\r\n        uint256 marketingBNB = receivedBNB.div(6).mul(2);\r\n        \r\n        transferBNBToAddress(_marketingAddress, marketingBNB);\r\n\r\n        // Send the remaining BNB to the development wallet 3%\r\n        uint256 devleopBNB = receivedBNB.div(6).mul(3);\r\n        \r\n        transferBNBToAddress(_developAddress, devleopBNB);\r\n        \r\n        emit SwapAndLiquify(swapAmount, liquidityBNB, seventh);\r\n    }\r\n    \r\n    /**\r\n     * @notice Swap tokens for BNB storing the resulting BNB in the contract\r\n     */\r\n    function swapTokensForBNB(uint256 tokenAmount) private {\r\n        // Generate the Pancakeswap pair for DHT/WBNB\r\n        address[] memory path = new address[](2);\r\n        path[0] = address(this);\r\n        path[1] = _pancakeswapV2Router.WETH(); // WETH = WBNB on BSC\r\n\r\n        _approve(address(this), address(_pancakeswapV2Router), tokenAmount);\r\n\r\n        // Execute the swap\r\n        _pancakeswapV2Router.swapExactTokensForETHSupportingFeeOnTransferTokens(\r\n            tokenAmount,\r\n            0, // Accept any amount of BNB\r\n            path,\r\n            address(this),\r\n            block.timestamp.add(300)\r\n        );\r\n    }\r\n    \r\n    /**\r\n     * @notice Swaps BNB for tokens and immedietely burns them\r\n     */\r\n    function swapBNBForTokens(uint256 amount) private {\r\n        // generate the uniswap pair path of token -> weth\r\n        address[] memory path = new address[](2);\r\n        path[0] = _pancakeswapV2Router.WETH();\r\n        path[1] = address(this);\r\n\r\n        _pancakeswapV2Router.swapExactETHForTokensSupportingFeeOnTransferTokens{value: amount}(\r\n            0, // Accept any amount of RAINBOW\r\n            path,\r\n            _burnAddress, // Burn address\r\n            block.timestamp.add(300)\r\n        );\r\n    }\r\n\r\n    /**\r\n     * @notice Adds liquidity to the PancakeSwap V2 LP\r\n     */\r\n    function addLiquidity(uint256 tokenAmount, uint256 bnbAmount) private {\r\n        // Approve token transfer to cover all possible scenarios\r\n        _approve(address(this), address(_pancakeswapV2Router), tokenAmount);\r\n\r\n        // Adds the liquidity and gives the LP tokens to the owner of this contract\r\n        // The LP tokens need to be manually locked\r\n        _pancakeswapV2Router.addLiquidityETH{value: bnbAmount}(\r\n            address(this),\r\n            tokenAmount,\r\n            0, // Take any amount of tokens (ratio varies)\r\n            0, // Take any amount of BNB (ratio varies)\r\n            owner(),\r\n            block.timestamp.add(300)\r\n        );\r\n    }\r\n    \r\n    /**\r\n     * @notice Allows a user to voluntarily reflect their tokens to everyone else\r\n     */\r\n    function reflect(uint256 tAmount) public {\r\n        require(!_isExcluded[_msgSender()], \"Excluded addresses cannot call this function\");\r\n        (uint256 rAmount,,,,) = _getValues(tAmount);\r\n        _rOwned[_msgSender()] = _rOwned[_msgSender()].sub(rAmount);\r\n        _rTotal = _rTotal.sub(rAmount);\r\n        _totalReflections = _totalReflections.add(tAmount);\r\n    }\r\n}",
  "sourcePath": "C:\\work\\BV\\contracts\\BlocVaultToken.sol",
  "compiler": {
    "name": "solc",
    "version": "0.8.4+commit.c7e474f2.Emscripten.clang"
  },
  "schemaVersion": "3.4.4",
  "updatedAt": "2021-12-28T19:39:44.682Z",
  "networkType": "ethereum",
  "devdoc": {
    "details": "The official BlocVaultToken smart contract",
    "kind": "dev",
    "methods": {
      "allowance(address,address)": {
        "details": "Returns the remaining number of tokens that `spender` will be allowed to spend on behalf of `owner` through {transferFrom}. This is zero by default. This value changes when {approve} or {transferFrom} are called."
      },
      "approve(address,uint256)": {
        "details": "Sets `amount` as the allowance of `spender` over the caller's tokens. Returns a boolean value indicating whether the operation succeeded. IMPORTANT: Beware that changing an allowance with this method brings the risk that someone may use both the old and the new allowance by unfortunate transaction ordering. One possible solution to mitigate this race condition is to first reduce the spender's allowance to 0 and set the desired value afterwards: https://github.com/ethereum/EIPs/issues/20#issuecomment-263524729 Emits an {Approval} event."
      },
      "balanceOf(address)": {
        "details": "Returns the amount of tokens owned by `account`."
      },
      "owner()": {
        "details": "Returns the address of the current owner."
      },
      "renounceOwnership()": {
        "details": "Leaves the contract without owner. It will not be possible to call `onlyOwner` functions anymore. Can only be called by the current owner. NOTE: Renouncing ownership will leave the contract without an owner, thereby removing any functionality that is only available to the owner."
      },
      "totalSupply()": {
        "details": "Returns the amount of tokens in existence."
      },
      "transfer(address,uint256)": {
        "details": "Moves `amount` tokens from the caller's account to `recipient`. Returns a boolean value indicating whether the operation succeeded. Emits a {Transfer} event."
      },
      "transferFrom(address,address,uint256)": {
        "details": "Moves `amount` tokens from `sender` to `recipient` using the allowance mechanism. `amount` is then deducted from the caller's allowance. Returns a boolean value indicating whether the operation succeeded. Emits a {Transfer} event."
      },
      "transferOwnership(address)": {
        "details": "Transfers ownership of the contract to a new account (`newOwner`). Can only be called by the current owner."
      }
    },
    "version": 1
  },
  "userdoc": {
    "kind": "user",
    "methods": {
      "excludeFromReward(address)": {
        "notice": "Excludes an address from receiving reflections"
      },
      "includeInReward(address)": {
        "notice": "Includes an address back into the reflection system"
      },
      "reflect(uint256)": {
        "notice": "Allows a user to voluntarily reflect their tokens to everyone else"
      },
      "reflectionFromToken(uint256,bool)": {
        "notice": "Converts a token value to a reflection value"
      },
      "setPreSaleTime(uint256)": {
        "notice": "set presale _preSaleLockDeadline"
      },
      "setRouterAddress(address)": {
        "notice": "Allows the contract to change the router, in the instance when PancakeSwap upgrades making the contract future proof"
      },
      "tokenFromReflection(uint256)": {
        "notice": "Converts a reflection value to a token value"
      },
      "withdrawBNB(uint256)": {
        "notice": "Withdraws BNB from the contract"
      },
      "withdrawForeignToken(address)": {
        "notice": "Withdraws non-RAINBOW tokens that are stuck as to not interfere with the liquidity"
      }
    },
    "version": 1
  }
}