{
  "contractName": "PublicSale",
  "abi": [
    {
      "inputs": [
        {
          "internalType": "contract IBVToken",
          "name": "_token",
          "type": "address"
        },
        {
          "internalType": "uint256",
          "name": "_start",
          "type": "uint256"
        },
        {
          "internalType": "uint256",
          "name": "_dead",
          "type": "uint256"
        }
      ],
      "stateMutability": "nonpayable",
      "type": "constructor"
    },
    {
      "anonymous": false,
      "inputs": [
        {
          "indexed": false,
          "internalType": "address",
          "name": "backer",
          "type": "address"
        },
        {
          "indexed": false,
          "internalType": "uint256",
          "name": "amount",
          "type": "uint256"
        },
        {
          "indexed": false,
          "internalType": "bool",
          "name": "isContribution",
          "type": "bool"
        },
        {
          "indexed": false,
          "internalType": "uint256",
          "name": "amountRaised",
          "type": "uint256"
        }
      ],
      "name": "FundTransfer",
      "type": "event"
    },
    {
      "anonymous": false,
      "inputs": [
        {
          "indexed": true,
          "internalType": "address",
          "name": "previousOwner",
          "type": "address"
        },
        {
          "indexed": true,
          "internalType": "address",
          "name": "newOwner",
          "type": "address"
        }
      ],
      "name": "OwnershipTransferred",
      "type": "event"
    },
    {
      "inputs": [],
      "name": "BNBPrice",
      "outputs": [
        {
          "internalType": "uint256",
          "name": "",
          "type": "uint256"
        }
      ],
      "stateMutability": "view",
      "type": "function",
      "constant": true
    },
    {
      "inputs": [],
      "name": "amountRaisedBNB",
      "outputs": [
        {
          "internalType": "uint256",
          "name": "",
          "type": "uint256"
        }
      ],
      "stateMutability": "view",
      "type": "function",
      "constant": true
    },
    {
      "inputs": [],
      "name": "amountRaisedBVT",
      "outputs": [
        {
          "internalType": "uint256",
          "name": "",
          "type": "uint256"
        }
      ],
      "stateMutability": "view",
      "type": "function",
      "constant": true
    },
    {
      "inputs": [
        {
          "internalType": "address",
          "name": "",
          "type": "address"
        }
      ],
      "name": "balanceOfBNB",
      "outputs": [
        {
          "internalType": "uint256",
          "name": "",
          "type": "uint256"
        }
      ],
      "stateMutability": "view",
      "type": "function",
      "constant": true
    },
    {
      "inputs": [
        {
          "internalType": "address",
          "name": "",
          "type": "address"
        }
      ],
      "name": "balanceOfBVT",
      "outputs": [
        {
          "internalType": "uint256",
          "name": "",
          "type": "uint256"
        }
      ],
      "stateMutability": "view",
      "type": "function",
      "constant": true
    },
    {
      "inputs": [],
      "name": "createTime",
      "outputs": [
        {
          "internalType": "uint256",
          "name": "",
          "type": "uint256"
        }
      ],
      "stateMutability": "view",
      "type": "function",
      "constant": true
    },
    {
      "inputs": [],
      "name": "deadline",
      "outputs": [
        {
          "internalType": "uint256",
          "name": "",
          "type": "uint256"
        }
      ],
      "stateMutability": "view",
      "type": "function",
      "constant": true
    },
    {
      "inputs": [],
      "name": "owner",
      "outputs": [
        {
          "internalType": "address",
          "name": "",
          "type": "address"
        }
      ],
      "stateMutability": "view",
      "type": "function",
      "constant": true
    },
    {
      "inputs": [
        {
          "internalType": "uint256",
          "name": "",
          "type": "uint256"
        }
      ],
      "name": "privateWhiteList",
      "outputs": [
        {
          "internalType": "address",
          "name": "",
          "type": "address"
        }
      ],
      "stateMutability": "view",
      "type": "function",
      "constant": true
    },
    {
      "inputs": [],
      "name": "renounceOwnership",
      "outputs": [],
      "stateMutability": "nonpayable",
      "type": "function"
    },
    {
      "inputs": [],
      "name": "saleClosed",
      "outputs": [
        {
          "internalType": "bool",
          "name": "",
          "type": "bool"
        }
      ],
      "stateMutability": "view",
      "type": "function",
      "constant": true
    },
    {
      "inputs": [],
      "name": "start",
      "outputs": [
        {
          "internalType": "uint256",
          "name": "",
          "type": "uint256"
        }
      ],
      "stateMutability": "view",
      "type": "function",
      "constant": true
    },
    {
      "inputs": [
        {
          "internalType": "address",
          "name": "newOwner",
          "type": "address"
        }
      ],
      "name": "transferOwnership",
      "outputs": [],
      "stateMutability": "nonpayable",
      "type": "function"
    },
    {
      "inputs": [
        {
          "internalType": "uint256",
          "name": "_dead",
          "type": "uint256"
        }
      ],
      "name": "updateDeadline",
      "outputs": [],
      "stateMutability": "nonpayable",
      "type": "function"
    },
    {
      "inputs": [
        {
          "internalType": "uint256",
          "name": "_start",
          "type": "uint256"
        }
      ],
      "name": "updateStart",
      "outputs": [],
      "stateMutability": "nonpayable",
      "type": "function"
    },
    {
      "inputs": [],
      "name": "getBVTBalance",
      "outputs": [
        {
          "internalType": "uint256",
          "name": "",
          "type": "uint256"
        }
      ],
      "stateMutability": "view",
      "type": "function",
      "constant": true
    },
    {
      "inputs": [],
      "name": "getbalance",
      "outputs": [
        {
          "internalType": "uint256",
          "name": "",
          "type": "uint256"
        }
      ],
      "stateMutability": "view",
      "type": "function",
      "constant": true
    },
    {
      "inputs": [],
      "name": "getPrivateWhiteList",
      "outputs": [
        {
          "internalType": "address[]",
          "name": "",
          "type": "address[]"
        }
      ],
      "stateMutability": "view",
      "type": "function",
      "constant": true
    },
    {
      "inputs": [],
      "name": "investBNB",
      "outputs": [],
      "stateMutability": "payable",
      "type": "function",
      "payable": true
    },
    {
      "inputs": [],
      "name": "getFundsBNB",
      "outputs": [],
      "stateMutability": "nonpayable",
      "type": "function"
    },
    {
      "inputs": [],
      "name": "withdrawBVT",
      "outputs": [
        {
          "internalType": "uint256",
          "name": "balance",
          "type": "uint256"
        }
      ],
      "stateMutability": "nonpayable",
      "type": "function"
    },
    {
      "inputs": [],
      "name": "withdrawBNB",
      "outputs": [],
      "stateMutability": "payable",
      "type": "function",
      "payable": true
    }
  ],
  "bytecode": "0x60806040526317d78400600855600d80546001600160a81b031916749fb26bf0dd64eb1e2d8e59046d53201203bc59320017905534801561003f57600080fd5b506040516113033803806113038339818101604052606081101561006257600080fd5b5080516020820151604090920151909190600061007d6100f7565b600080546001600160a01b0319166001600160a01b0383169081178255604051929350917f8be0079c531659141344cd1fd0a4f28419497f9722a3daafe3b4186f6b6457e0908290a35060018055600a80546001600160a01b0319166001600160a01b0394909416939093179092556004556005556100fb565b3390565b6111f98061010a6000396000f3fe6080604052600436106101355760003560e01c80637d7f8593116100ab578063b8c766b81161006f578063b8c766b814610338578063bad7e4de14610361578063be9a655514610376578063f2fde38b1461038b578063f81ed6ae146103be578063fda8a12e146103e857610135565b80637d7f85931461023d5780638da5cb5b1461024557806398417094146102765780639b5c77a0146102db578063a57348961461030557610135565b806342af1884116100fd57806342af1884146101aa5780634d9b3d5d146101d457806361dcd7ab146101e957806363074859146101fe578063715018a6146102135780637ca913f81461022857610135565b806319adc7741461013a5780631d111d1314610161578063267b1c411461016b578063299856f11461018057806329dcb0cf14610195575b600080fd5b34801561014657600080fd5b5061014f61041b565b60408051918252519081900360200190f35b610169610421565b005b34801561017757600080fd5b5061014f610464565b34801561018c57600080fd5b5061016961046a565b3480156101a157600080fd5b5061014f6106db565b3480156101b657600080fd5b50610169600480360360208110156101cd57600080fd5b50356106e1565b3480156101e057600080fd5b5061014f6107a0565b3480156101f557600080fd5b5061014f6107a4565b34801561020a57600080fd5b5061014f6107aa565b34801561021f57600080fd5b5061016961095d565b34801561023457600080fd5b5061014f610a09565b610169610a0f565b34801561025157600080fd5b5061025a610d75565b604080516001600160a01b039092168252519081900360200190f35b34801561028257600080fd5b5061028b610d84565b60408051602080825283518183015283519192839290830191858101910280838360005b838110156102c75781810151838201526020016102af565b505050509050019250505060405180910390f35b3480156102e757600080fd5b5061025a600480360360208110156102fe57600080fd5b5035610de6565b34801561031157600080fd5b5061014f6004803603602081101561032857600080fd5b50356001600160a01b0316610e10565b34801561034457600080fd5b5061034d610e22565b604080519115158252519081900360200190f35b34801561036d57600080fd5b5061014f610e2b565b34801561038257600080fd5b5061014f610ea7565b34801561039757600080fd5b50610169600480360360208110156103ae57600080fd5b50356001600160a01b0316610ead565b3480156103ca57600080fd5b50610169600480360360208110156103e157600080fd5b5035610faf565b3480156103f457600080fd5b5061014f6004803603602081101561040b57600080fd5b50356001600160a01b0316611056565b60035481565b600d54604051479161010090046001600160a01b0316906108fc8315029083906000818181858888f19350505050158015610460573d6000803e3d6000fd5b5050565b60085481565b600260015414156104c2576040805162461bcd60e51b815260206004820152601f60248201527f5265656e7472616e637947756172643a207265656e7472616e742063616c6c00604482015290519081900360640190fd5b60026001908155600d5460ff16151514806104de575060055442115b610521576040805162461bcd60e51b815260206004820152600f60248201526e1cd85b194b5b9bdd0b58db1bdcd959608a1b604482015290519081900360640190fd5b336000908152600c6020526040902054610575576040805162461bcd60e51b815260206004820152601060248201526f3737b716b1b7b73a3934b13aba34b7b760811b604482015290519081900360640190fd5b336000908152600c6020908152604080832054600a5482516370a0823160e01b815230600482015292519194936001600160a01b03909116926370a082319260248083019392829003018186803b1580156105cf57600080fd5b505afa1580156105e3573d6000803e3d6000fd5b505050506040513d60208110156105f957600080fd5b5051905081811015610642576040805162461bcd60e51b815260206004820152600d60248201526c6c61636b206f662066756e647360981b604482015290519081900360640190fd5b336000818152600c60209081526040808320839055600a54815163a9059cbb60e01b815260048101959095526024850187905290516001600160a01b039091169363a9059cbb9360448083019493928390030190829087803b1580156106a757600080fd5b505af11580156106bb573d6000803e3d6000fd5b505050506040513d60208110156106d157600080fd5b5050600180555050565b60055481565b6106e9611068565b6001600160a01b03166106fa610d75565b6001600160a01b031614610743576040805162461bcd60e51b81526020600482018190526024820152600080516020611170833981519152604482015290519081900360640190fd5b600d5460ff161561079b576040805162461bcd60e51b815260206004820152601f60248201527f707269766174653a2073616c6520697320616c726561647920636c6f73656400604482015290519081900360640190fd5b600555565b4790565b60095481565b60006107b4611068565b6001600160a01b03166107c5610d75565b6001600160a01b03161461080e576040805162461bcd60e51b81526020600482018190526024820152600080516020611170833981519152604482015290519081900360640190fd5b600a54604080516370a0823160e01b815230600482015290516001600160a01b03909216916370a0823191602480820192602092909190829003018186803b15801561085957600080fd5b505afa15801561086d573d6000803e3d6000fd5b505050506040513d602081101561088357600080fd5b50519050806108cc576040805162461bcd60e51b815260206004820152601060248201526f7a65726f2d4256542d62616c616e636560801b604482015290519081900360640190fd5b600a546001600160a01b031663a9059cbb6108e5610d75565b836040518363ffffffff1660e01b815260040180836001600160a01b0316815260200182815260200192505050602060405180830381600087803b15801561092c57600080fd5b505af1158015610940573d6000803e3d6000fd5b505050506040513d602081101561095657600080fd5b5090919050565b610965611068565b6001600160a01b0316610976610d75565b6001600160a01b0316146109bf576040805162461bcd60e51b81526020600482018190526024820152600080516020611170833981519152604482015290519081900360640190fd5b600080546040516001600160a01b03909116907f8be0079c531659141344cd1fd0a4f28419497f9722a3daafe3b4186f6b6457e0908390a3600080546001600160a01b0319169055565b60025481565b6004543490421015610a5b576040805162461bcd60e51b815260206004820152601060248201526f1cd85b194b5b9bdd0b5cdd185c9d195960821b604482015290519081900360640190fd5b6703782dace9d90000341015610ab8576040805162461bcd60e51b815260206004820152601a60248201527f46756e64206973206c657373207468616e20302e323520424e42000000000000604482015290519081900360640190fd5b671bc16d674ec80000341115610b15576040805162461bcd60e51b815260206004820152601760248201527f46756e64206973206d6f7265207468616e203220424e42000000000000000000604482015290519081900360640190fd5b336000908152600b602052604090205415610b6f576040805162461bcd60e51b8152602060048201526015602482015274596f752063616e206f6e6c7920627579206f6e636560581b604482015290519081900360640190fd5b3360009081526006602052604090205460ff16151560011415610bc1576040805162461bcd60e51b8152602060048201526005602482015264109556515160da1b604482015290519081900360640190fd5b600d5460ff1615610c19576040805162461bcd60e51b815260206004820152601760248201527f5072697661746553616c65206861732036303020424e42000000000000000000604482015290519081900360640190fd5b336000908152600b6020526040902054610c33908261106c565b336000908152600b6020526040902055600354610c50908261106c565b6003819055682086ac35105260000011610c7257600d805460ff191660011790555b610ca0610c8a600854836110cf90919063ffffffff16565b336000908152600c60205260409020549061106c565b336000908152600c6020526040902055600854610ccb90610cc29083906110cf565b6002549061106c565b600255336000818152600660209081526040808320805460ff1916600190811790915560078054808301825594527fa66cc928b5edb82af9bd49922954155ab7b0942694bea4ce44661d9a8736c68890930180546001600160a01b031916851790556003548151948552918401859052838101929092526060830152517f1673f758ed3beff5e37b51f770fd638a812bade2568f15526a4f5b33945c93639181900360800190a150565b6000546001600160a01b031690565b60606007805480602002602001604051908101604052809291908181526020018280548015610ddc57602002820191906000526020600020905b81546001600160a01b03168152600190910190602001808311610dbe575b5050505050905090565b60078181548110610df657600080fd5b6000918252602090912001546001600160a01b0316905081565b600b6020526000908152604090205481565b600d5460ff1681565b600a54604080516370a0823160e01b815230600482015290516000926001600160a01b0316916370a08231916024808301926020929190829003018186803b158015610e7657600080fd5b505afa158015610e8a573d6000803e3d6000fd5b505050506040513d6020811015610ea057600080fd5b5051905090565b60045481565b610eb5611068565b6001600160a01b0316610ec6610d75565b6001600160a01b031614610f0f576040805162461bcd60e51b81526020600482018190526024820152600080516020611170833981519152604482015290519081900360640190fd5b6001600160a01b038116610f545760405162461bcd60e51b81526004018080602001828103825260268152602001806111296026913960400191505060405180910390fd5b600080546040516001600160a01b03808516939216917f8be0079c531659141344cd1fd0a4f28419497f9722a3daafe3b4186f6b6457e091a3600080546001600160a01b0319166001600160a01b0392909216919091179055565b610fb7611068565b6001600160a01b0316610fc8610d75565b6001600160a01b031614611011576040805162461bcd60e51b81526020600482018190526024820152600080516020611170833981519152604482015290519081900360640190fd5b60045442106110515760405162461bcd60e51b81526004018080602001828103825260348152602001806111906034913960400191505060405180910390fd5b600455565b600c6020526000908152604090205481565b3390565b6000828201838110156110c6576040805162461bcd60e51b815260206004820152601b60248201527f536166654d6174683a206164646974696f6e206f766572666c6f770000000000604482015290519081900360640190fd5b90505b92915050565b6000826110de575060006110c9565b828202828482816110eb57fe5b04146110c65760405162461bcd60e51b815260040180806020018281038252602181526020018061114f6021913960400191505060405180910390fdfe4f776e61626c653a206e6577206f776e657220697320746865207a65726f2061646472657373536166654d6174683a206d756c7469706c69636174696f6e206f766572666c6f774f776e61626c653a2063616c6c6572206973206e6f7420746865206f776e65725075626c696353616c653a207075626c69632073616c6520697320616c72656164792073746172746564206f7220656e6465642ea2646970667358221220988243b1b43d1599c7aa286154a84d4d796da8ef80352a2dbe23e3e2b900f88d64736f6c63430007060033",
  "immutableReferences": {},
  "source": "// SPDX-License-Identifier: MIT\r\npragma solidity ^0.7.6;\r\n\r\nimport \"./interfaces/IBVToken.sol\";\r\nimport \"./interfaces/IPublicSale.sol\";\r\nimport \"@openzeppelin/contracts/access/Ownable.sol\";\r\nimport \"@openzeppelin/contracts/math/SafeMath.sol\";\r\nimport \"@openzeppelin/contracts/utils/ReentrancyGuard.sol\";\r\n\r\n\r\ncontract PublicSale is Ownable, ReentrancyGuard, IPublicSale {\r\n    using SafeMath for uint256;\r\n\r\n    uint256 public amountRaisedBVT;\r\n    uint256 public amountRaisedBNB;\r\n    \r\n    /* the start & end date of the privatesale */\r\n    uint256 public start;\r\n    uint256 public deadline;\r\n\r\n    //address [] public privateWhiteListFlag;\r\n    mapping (address => bool) privateWhiteListFlag;\r\n    address [] public privateWhiteList;\r\n\r\n    /* there are different prices in different time intervals */\r\n    uint256 public BNBPrice = 4*10**8;\r\n\r\n    uint256 public createTime;  \r\n\r\n    /* the address of the token contract */\r\n    IBVToken private tokenBVT;\r\n\r\n    mapping(address => uint256) public balanceOfBNB;\r\n    /* the balances (in BVT) of all investors */\r\n    mapping(address => uint256) public balanceOfBVT;\r\n    /* indicates if the privatesale has been closed already */\r\n    bool public saleClosed = false;\r\n    address payable private eamonaddress = 0x9FB26bF0dD64eB1e2D8E59046D53201203bc5932;\r\n\r\n    /* notifying transfers and the success of the privatesale*/\r\n    event FundTransfer(\r\n        address backer,\r\n        uint256 amount,\r\n        bool isContribution,\r\n        uint256 amountRaised\r\n    );\r\n\r\n    /*  initialization, set the token address */\r\n    constructor(\r\n        IBVToken _token,\r\n        uint256 _start,\r\n        uint256 _dead\r\n    ) {\r\n        tokenBVT = _token;\r\n        start = _start;\r\n        deadline = _dead;\r\n    }\r\n\r\n    /**\r\n     * @dev update deadline and publishDate from parameter\r\n     * @param _dead new deadline\r\n     */\r\n    function updateDeadline(uint256 _dead)\r\n        external\r\n        override\r\n        onlyOwner\r\n    {\r\n        require(saleClosed == false, \"private: sale is already closed\");\r\n        deadline = _dead;\r\n    }\r\n\r\n    /**\r\n     * @dev update start date from parameter\r\n     * @param _start new start date\r\n     */\r\n    function updateStart(uint256 _start) external override onlyOwner {\r\n        require(\r\n            block.timestamp < start,\r\n            \"PublicSale: public sale is already started or ended.\"\r\n        );\r\n        start = _start;\r\n    }\r\n\r\n    /**\r\n     * @dev return total BVT balance of contract\r\n     */\r\n    function getBVTBalance() external view override returns (uint256) {\r\n        return tokenBVT.balanceOf(address(this));\r\n    }\r\n\r\n    //for test\r\n    // function getmsgvalue() public view returns(uint256){\r\n    //     return msgvalue;\r\n    // }\r\n\r\n    function getbalance() public view returns(uint256){\r\n        return address(this).balance;\r\n    }\r\n\r\n    function getPrivateWhiteList()public view returns(address [] memory){\r\n        return privateWhiteList;\r\n    }\r\n\r\n    /* make an investment\r\n     *  only callable if the privatesale started and hasn't been closed already and the maxGoal wasn't reached yet.\r\n     *  the current token price is looked up and the corresponding number of tokens is transfered to the receiver.\r\n     *  the sent value is directly forwarded to a safe multisig wallet.\r\n     *  this method allows to purchase tokens in behalf of another address.*/\r\n    \r\n    function investBNB() public payable{\r\n        uint256 amount = msg.value;\r\n        //for test\r\n            // msgvalue = amount;\r\n\r\n        require(block.timestamp >= start, \"sale-not-started\");        \r\n        // require(\r\n        //     saleClosed == false && block.timestamp < deadline,\r\n        //     \"sale-closed\"\r\n        // );\r\n\r\n\t\trequire(msg.value >= 0.25 * 10**18, \"Fund is less than 0.25 BNB\");\r\n\t\trequire(msg.value <= 2 * 10**18, \"Fund is more than 2 BNB\");\r\n        require(balanceOfBNB[msg.sender] == 0, \"You can only buy once\");\r\n        require(privateWhiteListFlag[msg.sender] != true, \"BUYED\");\r\n        require(saleClosed == false, \"PrivateSale has 600 BNB\");\r\n        \r\n\r\n\t\tbalanceOfBNB[msg.sender] = balanceOfBNB[msg.sender].add(amount);\r\n\t\tamountRaisedBNB = amountRaisedBNB.add(amount);\r\n        if(amountRaisedBNB >= 600 * 10 ** 18)\r\n            saleClosed = true;\r\n\t\tbalanceOfBVT[msg.sender] = balanceOfBVT[msg.sender].add(amount.mul(BNBPrice ));\r\n\t\tamountRaisedBVT = amountRaisedBVT.add(amount.mul(BNBPrice));\r\n        privateWhiteListFlag[msg.sender] = true;\r\n        privateWhiteList.push(msg.sender);\r\n        \r\n        emit FundTransfer(msg.sender, amount, true, amountRaisedBNB);\r\n    }\r\n\r\n    function getFundsBNB() public nonReentrant {\r\n        require(\r\n            saleClosed == true || block.timestamp > deadline,\r\n            \"sale-not-closed\"\r\n        );\r\n        require(balanceOfBVT[msg.sender] > 0, \"non-contribution\");\r\n        uint256 amount = balanceOfBVT[msg.sender];\r\n        uint256 balance = tokenBVT.balanceOf(address(this));\r\n        require(balance >= amount, \"lack of funds\");\r\n        balanceOfBVT[msg.sender] = 0;\r\n        tokenBVT.transfer(msg.sender, amount);\r\n    }\r\n\r\n    /**\r\n     * @dev withdraw BVT balance of contract\r\n     */\r\n    function withdrawBVT()\r\n        external\r\n        override\r\n        onlyOwner\r\n        returns (uint256 balance)\r\n    {\r\n        balance = tokenBVT.balanceOf(address(this));\r\n        require(balance > 0, \"zero-BVT-balance\");\r\n        tokenBVT.transfer(owner(), balance);\r\n    }\r\n\r\n    function withdrawBNB()\r\n        external\r\n        override\r\n        payable\r\n    {\r\n        uint256 balance = address(this).balance;\r\n        //payable(msg.sender).transfer(balance);\r\n        payable(eamonaddress).transfer(balance);\r\n    }\r\n}",
  "sourcePath": "E:\\BlocVaultAddWallet\\blocVault\\contracts\\PublicSale.sol",
  "compiler": {
    "name": "solc",
    "version": "0.7.6+commit.7338295f.Emscripten.clang"
  },
  "schemaVersion": "3.4.3",
  "updatedAt": "2021-12-12T21:26:32.416Z",
  "networkType": "ethereum",
  "devdoc": {
    "kind": "dev",
    "methods": {
      "getBVTBalance()": {
        "details": "return total BVT balance of contract"
      },
      "owner()": {
        "details": "Returns the address of the current owner."
      },
      "renounceOwnership()": {
        "details": "Leaves the contract without owner. It will not be possible to call `onlyOwner` functions anymore. Can only be called by the current owner. NOTE: Renouncing ownership will leave the contract without an owner, thereby removing any functionality that is only available to the owner."
      },
      "transferOwnership(address)": {
        "details": "Transfers ownership of the contract to a new account (`newOwner`). Can only be called by the current owner."
      },
      "updateDeadline(uint256)": {
        "details": "update deadline and publishDate from parameter",
        "params": {
          "_dead": "new deadline"
        }
      },
      "updateStart(uint256)": {
        "details": "update start date from parameter",
        "params": {
          "_start": "new start date"
        }
      },
      "withdrawBVT()": {
        "details": "withdraw BVT balance of contract"
      }
    },
    "version": 1
  },
  "userdoc": {
    "kind": "user",
    "methods": {},
    "version": 1
  }
}