{
  "contractName": "PublicSale",
  "abi": [
    {
      "inputs": [
        {
          "internalType": "contract IBVToken",
          "name": "_token",
          "type": "address"
        },
        {
          "internalType": "uint256",
          "name": "_start",
          "type": "uint256"
        },
        {
          "internalType": "uint256",
          "name": "_dead",
          "type": "uint256"
        }
      ],
      "stateMutability": "nonpayable",
      "type": "constructor"
    },
    {
      "anonymous": false,
      "inputs": [
        {
          "indexed": false,
          "internalType": "address",
          "name": "backer",
          "type": "address"
        },
        {
          "indexed": false,
          "internalType": "uint256",
          "name": "amount",
          "type": "uint256"
        },
        {
          "indexed": false,
          "internalType": "bool",
          "name": "isContribution",
          "type": "bool"
        },
        {
          "indexed": false,
          "internalType": "uint256",
          "name": "amountRaised",
          "type": "uint256"
        }
      ],
      "name": "FundTransfer",
      "type": "event"
    },
    {
      "anonymous": false,
      "inputs": [
        {
          "indexed": true,
          "internalType": "address",
          "name": "previousOwner",
          "type": "address"
        },
        {
          "indexed": true,
          "internalType": "address",
          "name": "newOwner",
          "type": "address"
        }
      ],
      "name": "OwnershipTransferred",
      "type": "event"
    },
    {
      "inputs": [],
      "name": "BNBPrice",
      "outputs": [
        {
          "internalType": "uint256",
          "name": "",
          "type": "uint256"
        }
      ],
      "stateMutability": "view",
      "type": "function"
    },
    {
      "inputs": [],
      "name": "amountRaisedBNB",
      "outputs": [
        {
          "internalType": "uint256",
          "name": "",
          "type": "uint256"
        }
      ],
      "stateMutability": "view",
      "type": "function"
    },
    {
      "inputs": [],
      "name": "amountRaisedBVT",
      "outputs": [
        {
          "internalType": "uint256",
          "name": "",
          "type": "uint256"
        }
      ],
      "stateMutability": "view",
      "type": "function"
    },
    {
      "inputs": [
        {
          "internalType": "address",
          "name": "",
          "type": "address"
        }
      ],
      "name": "balanceOfBNB",
      "outputs": [
        {
          "internalType": "uint256",
          "name": "",
          "type": "uint256"
        }
      ],
      "stateMutability": "view",
      "type": "function"
    },
    {
      "inputs": [
        {
          "internalType": "address",
          "name": "",
          "type": "address"
        }
      ],
      "name": "balanceOfBVT",
      "outputs": [
        {
          "internalType": "uint256",
          "name": "",
          "type": "uint256"
        }
      ],
      "stateMutability": "view",
      "type": "function"
    },
    {
      "inputs": [],
      "name": "createTime",
      "outputs": [
        {
          "internalType": "uint256",
          "name": "",
          "type": "uint256"
        }
      ],
      "stateMutability": "view",
      "type": "function"
    },
    {
      "inputs": [],
      "name": "deadline",
      "outputs": [
        {
          "internalType": "uint256",
          "name": "",
          "type": "uint256"
        }
      ],
      "stateMutability": "view",
      "type": "function"
    },
    {
      "inputs": [],
      "name": "owner",
      "outputs": [
        {
          "internalType": "address",
          "name": "",
          "type": "address"
        }
      ],
      "stateMutability": "view",
      "type": "function"
    },
    {
      "inputs": [
        {
          "internalType": "uint256",
          "name": "",
          "type": "uint256"
        }
      ],
      "name": "privateWhiteList",
      "outputs": [
        {
          "internalType": "address",
          "name": "",
          "type": "address"
        }
      ],
      "stateMutability": "view",
      "type": "function"
    },
    {
      "inputs": [],
      "name": "renounceOwnership",
      "outputs": [],
      "stateMutability": "nonpayable",
      "type": "function"
    },
    {
      "inputs": [],
      "name": "saleClosed",
      "outputs": [
        {
          "internalType": "bool",
          "name": "",
          "type": "bool"
        }
      ],
      "stateMutability": "view",
      "type": "function"
    },
    {
      "inputs": [],
      "name": "start",
      "outputs": [
        {
          "internalType": "uint256",
          "name": "",
          "type": "uint256"
        }
      ],
      "stateMutability": "view",
      "type": "function"
    },
    {
      "inputs": [
        {
          "internalType": "address",
          "name": "newOwner",
          "type": "address"
        }
      ],
      "name": "transferOwnership",
      "outputs": [],
      "stateMutability": "nonpayable",
      "type": "function"
    },
    {
      "inputs": [
        {
          "internalType": "uint256",
          "name": "_dead",
          "type": "uint256"
        }
      ],
      "name": "updateDeadline",
      "outputs": [],
      "stateMutability": "nonpayable",
      "type": "function"
    },
    {
      "inputs": [
        {
          "internalType": "uint256",
          "name": "_start",
          "type": "uint256"
        }
      ],
      "name": "updateStart",
      "outputs": [],
      "stateMutability": "nonpayable",
      "type": "function"
    },
    {
      "inputs": [],
      "name": "getBVTBalance",
      "outputs": [
        {
          "internalType": "uint256",
          "name": "",
          "type": "uint256"
        }
      ],
      "stateMutability": "view",
      "type": "function"
    },
    {
      "inputs": [],
      "name": "getbalance",
      "outputs": [
        {
          "internalType": "uint256",
          "name": "",
          "type": "uint256"
        }
      ],
      "stateMutability": "view",
      "type": "function"
    },
    {
      "inputs": [],
      "name": "getPrivateWhiteList",
      "outputs": [
        {
          "internalType": "address[]",
          "name": "",
          "type": "address[]"
        }
      ],
      "stateMutability": "view",
      "type": "function"
    },
    {
      "inputs": [],
      "name": "investBNB",
      "outputs": [],
      "stateMutability": "payable",
      "type": "function"
    },
    {
      "inputs": [],
      "name": "getFundsBNB",
      "outputs": [],
      "stateMutability": "nonpayable",
      "type": "function"
    },
    {
      "inputs": [],
      "name": "withdrawBVT",
      "outputs": [
        {
          "internalType": "uint256",
          "name": "balance",
          "type": "uint256"
        }
      ],
      "stateMutability": "nonpayable",
      "type": "function"
    },
    {
      "inputs": [],
      "name": "withdrawBNB",
      "outputs": [],
      "stateMutability": "payable",
      "type": "function"
    },
    {
      "inputs": [],
      "name": "getCurrentTime",
      "outputs": [
        {
          "internalType": "uint256",
          "name": "",
          "type": "uint256"
        }
      ],
      "stateMutability": "view",
      "type": "function"
    },
    {
      "inputs": [],
      "name": "getDeadlineTime",
      "outputs": [
        {
          "internalType": "uint256",
          "name": "",
          "type": "uint256"
        }
      ],
      "stateMutability": "view",
      "type": "function"
    },
    {
      "inputs": [],
      "name": "getRemainTime",
      "outputs": [
        {
          "internalType": "uint256",
          "name": "",
          "type": "uint256"
        }
      ],
      "stateMutability": "view",
      "type": "function"
    }
  ],
  "bytecode": "0x60806040526317d78400600855600d805460ff1916905534801561002257600080fd5b506040516113b43803806113b48339818101604052606081101561004557600080fd5b508051602082015160409092015190919060006100606100da565b600080546001600160a01b0319166001600160a01b0383169081178255604051929350917f8be0079c531659141344cd1fd0a4f28419497f9722a3daafe3b4186f6b6457e0908290a35060018055600a80546001600160a01b0319166001600160a01b0394909416939093179092556004556005556100de565b3390565b6112c7806100ed6000396000f3fe6080604052600436106101665760003560e01c80637ca913f8116100d1578063b8c766b81161008a578063f2fde38b11610064578063f2fde38b146103e6578063f81ed6ae14610419578063fc2615d514610443578063fda8a12e1461045857610166565b8063b8c766b814610393578063bad7e4de146103bc578063be9a6555146103d157610166565b80637ca913f8146102835780637d7f8593146102985780638da5cb5b146102a057806398417094146102d15780639b5c77a014610336578063a57348961461036057610166565b806342af18841161012357806342af1884146101f057806345d960211461021a5780634d9b3d5d1461022f57806361dcd7ab146102445780636307485914610259578063715018a61461026e57610166565b806319adc7741461016b5780631d111d1314610192578063267b1c411461019c578063299856f1146101b157806329cb924d146101c657806329dcb0cf146101db575b600080fd5b34801561017757600080fd5b5061018061048b565b60408051918252519081900360200190f35b61019a610491565b005b3480156101a857600080fd5b50610180610526565b3480156101bd57600080fd5b5061019a61052c565b3480156101d257600080fd5b50610180610743565b3480156101e757600080fd5b50610180610747565b3480156101fc57600080fd5b5061019a6004803603602081101561021357600080fd5b503561074d565b34801561022657600080fd5b5061018061080c565b34801561023b57600080fd5b50610180610812565b34801561025057600080fd5b50610180610816565b34801561026557600080fd5b5061018061081c565b34801561027a57600080fd5b5061019a6109cf565b34801561028f57600080fd5b50610180610a7b565b61019a610a81565b3480156102ac57600080fd5b506102b5610e3a565b604080516001600160a01b039092168252519081900360200190f35b3480156102dd57600080fd5b506102e6610e49565b60408051602080825283518183015283519192839290830191858101910280838360005b8381101561032257818101518382015260200161030a565b505050509050019250505060405180910390f35b34801561034257600080fd5b506102b56004803603602081101561035957600080fd5b5035610eab565b34801561036c57600080fd5b506101806004803603602081101561038357600080fd5b50356001600160a01b0316610ed5565b34801561039f57600080fd5b506103a8610ee7565b604080519115158252519081900360200190f35b3480156103c857600080fd5b50610180610ef0565b3480156103dd57600080fd5b50610180610f6c565b3480156103f257600080fd5b5061019a6004803603602081101561040957600080fd5b50356001600160a01b0316610f72565b34801561042557600080fd5b5061019a6004803603602081101561043c57600080fd5b5035611074565b34801561044f57600080fd5b5061018061111b565b34801561046457600080fd5b506101806004803603602081101561047b57600080fd5b50356001600160a01b0316611124565b60035481565b610499611136565b6001600160a01b03166104aa610e3a565b6001600160a01b0316146104f3576040805162461bcd60e51b8152602060048201819052602482015260008051602061123e833981519152604482015290519081900360640190fd5b6040514790339082156108fc029083906000818181858888f19350505050158015610522573d6000803e3d6000fd5b5050565b60085481565b60026001541415610584576040805162461bcd60e51b815260206004820152601f60248201527f5265656e7472616e637947756172643a207265656e7472616e742063616c6c00604482015290519081900360640190fd5b6002600155336000908152600c60205260409020546105dd576040805162461bcd60e51b815260206004820152601060248201526f3737b716b1b7b73a3934b13aba34b7b760811b604482015290519081900360640190fd5b336000908152600c6020908152604080832054600a5482516370a0823160e01b815230600482015292519194936001600160a01b03909116926370a082319260248083019392829003018186803b15801561063757600080fd5b505afa15801561064b573d6000803e3d6000fd5b505050506040513d602081101561066157600080fd5b50519050818110156106aa576040805162461bcd60e51b815260206004820152600d60248201526c6c61636b206f662066756e647360981b604482015290519081900360640190fd5b336000818152600c60209081526040808320839055600a54815163a9059cbb60e01b815260048101959095526024850187905290516001600160a01b039091169363a9059cbb9360448083019493928390030190829087803b15801561070f57600080fd5b505af1158015610723573d6000803e3d6000fd5b505050506040513d602081101561073957600080fd5b5050600180555050565b4290565b60055481565b610755611136565b6001600160a01b0316610766610e3a565b6001600160a01b0316146107af576040805162461bcd60e51b8152602060048201819052602482015260008051602061123e833981519152604482015290519081900360640190fd5b600d5460ff1615610807576040805162461bcd60e51b815260206004820152601f60248201527f707269766174653a2073616c6520697320616c726561647920636c6f73656400604482015290519081900360640190fd5b600555565b60055490565b4790565b60095481565b6000610826611136565b6001600160a01b0316610837610e3a565b6001600160a01b031614610880576040805162461bcd60e51b8152602060048201819052602482015260008051602061123e833981519152604482015290519081900360640190fd5b600a54604080516370a0823160e01b815230600482015290516001600160a01b03909216916370a0823191602480820192602092909190829003018186803b1580156108cb57600080fd5b505afa1580156108df573d6000803e3d6000fd5b505050506040513d60208110156108f557600080fd5b505190508061093e576040805162461bcd60e51b815260206004820152601060248201526f7a65726f2d4256542d62616c616e636560801b604482015290519081900360640190fd5b600a546001600160a01b031663a9059cbb610957610e3a565b836040518363ffffffff1660e01b815260040180836001600160a01b0316815260200182815260200192505050602060405180830381600087803b15801561099e57600080fd5b505af11580156109b2573d6000803e3d6000fd5b505050506040513d60208110156109c857600080fd5b5090919050565b6109d7611136565b6001600160a01b03166109e8610e3a565b6001600160a01b031614610a31576040805162461bcd60e51b8152602060048201819052602482015260008051602061123e833981519152604482015290519081900360640190fd5b600080546040516001600160a01b03909116907f8be0079c531659141344cd1fd0a4f28419497f9722a3daafe3b4186f6b6457e0908390a3600080546001600160a01b0319169055565b60025481565b6004543490421015610acd576040805162461bcd60e51b815260206004820152601060248201526f1cd85b194b5b9bdd0b5cdd185c9d195960821b604482015290519081900360640190fd5b600d5460ff16158015610ae1575060055442105b610b20576040805162461bcd60e51b815260206004820152600b60248201526a1cd85b194b58db1bdcd95960aa1b604482015290519081900360640190fd5b6703782dace9d90000341015610b7d576040805162461bcd60e51b815260206004820152601a60248201527f46756e64206973206c657373207468616e20302e323520424e42000000000000604482015290519081900360640190fd5b671bc16d674ec80000341115610bda576040805162461bcd60e51b815260206004820152601760248201527f46756e64206973206d6f7265207468616e203220424e42000000000000000000604482015290519081900360640190fd5b336000908152600b602052604090205415610c34576040805162461bcd60e51b8152602060048201526015602482015274596f752063616e206f6e6c7920627579206f6e636560581b604482015290519081900360640190fd5b3360009081526006602052604090205460ff16151560011415610c86576040805162461bcd60e51b8152602060048201526005602482015264109556515160da1b604482015290519081900360640190fd5b600d5460ff1615610cde576040805162461bcd60e51b815260206004820152601760248201527f5072697661746553616c65206861732036303020424e42000000000000000000604482015290519081900360640190fd5b336000908152600b6020526040902054610cf8908261113a565b336000908152600b6020526040902055600354610d15908261113a565b6003819055682086ac35105260000011610d3757600d805460ff191660011790555b610d65610d4f6008548361119d90919063ffffffff16565b336000908152600c60205260409020549061113a565b336000908152600c6020526040902055600854610d9090610d8790839061119d565b6002549061113a565b600255336000818152600660209081526040808320805460ff1916600190811790915560078054808301825594527fa66cc928b5edb82af9bd49922954155ab7b0942694bea4ce44661d9a8736c68890930180546001600160a01b031916851790556003548151948552918401859052838101929092526060830152517f1673f758ed3beff5e37b51f770fd638a812bade2568f15526a4f5b33945c93639181900360800190a150565b6000546001600160a01b031690565b60606007805480602002602001604051908101604052809291908181526020018280548015610ea157602002820191906000526020600020905b81546001600160a01b03168152600190910190602001808311610e83575b5050505050905090565b60078181548110610ebb57600080fd5b6000918252602090912001546001600160a01b0316905081565b600b6020526000908152604090205481565b600d5460ff1681565b600a54604080516370a0823160e01b815230600482015290516000926001600160a01b0316916370a08231916024808301926020929190829003018186803b158015610f3b57600080fd5b505afa158015610f4f573d6000803e3d6000fd5b505050506040513d6020811015610f6557600080fd5b5051905090565b60045481565b610f7a611136565b6001600160a01b0316610f8b610e3a565b6001600160a01b031614610fd4576040805162461bcd60e51b8152602060048201819052602482015260008051602061123e833981519152604482015290519081900360640190fd5b6001600160a01b0381166110195760405162461bcd60e51b81526004018080602001828103825260268152602001806111f76026913960400191505060405180910390fd5b600080546040516001600160a01b03808516939216917f8be0079c531659141344cd1fd0a4f28419497f9722a3daafe3b4186f6b6457e091a3600080546001600160a01b0319166001600160a01b0392909216919091179055565b61107c611136565b6001600160a01b031661108d610e3a565b6001600160a01b0316146110d6576040805162461bcd60e51b8152602060048201819052602482015260008051602061123e833981519152604482015290519081900360640190fd5b60045442106111165760405162461bcd60e51b815260040180806020018281038252603481526020018061125e6034913960400191505060405180910390fd5b600455565b60055442900390565b600c6020526000908152604090205481565b3390565b600082820183811015611194576040805162461bcd60e51b815260206004820152601b60248201527f536166654d6174683a206164646974696f6e206f766572666c6f770000000000604482015290519081900360640190fd5b90505b92915050565b6000826111ac57506000611197565b828202828482816111b957fe5b04146111945760405162461bcd60e51b815260040180806020018281038252602181526020018061121d6021913960400191505060405180910390fdfe4f776e61626c653a206e6577206f776e657220697320746865207a65726f2061646472657373536166654d6174683a206d756c7469706c69636174696f6e206f766572666c6f774f776e61626c653a2063616c6c6572206973206e6f7420746865206f776e65725075626c696353616c653a207075626c69632073616c6520697320616c72656164792073746172746564206f7220656e6465642ea26469706673582212208bac74996f383f1825555e2ed4d21346f50c21892edf6b0f7f59cde508c21ccb64736f6c63430007060033",
  "immutableReferences": {},
  "source": "// SPDX-License-Identifier: MIT\r\npragma solidity ^0.7.6;\r\n\r\nimport \"./interfaces/IBVToken.sol\";\r\nimport \"./interfaces/IPublicSale.sol\";\r\nimport \"@openzeppelin/contracts/access/Ownable.sol\";\r\nimport \"@openzeppelin/contracts/math/SafeMath.sol\";\r\nimport \"@openzeppelin/contracts/utils/ReentrancyGuard.sol\";\r\n\r\n\r\ncontract PublicSale is Ownable, ReentrancyGuard, IPublicSale {\r\n    using SafeMath for uint256;\r\n\r\n    uint256 public amountRaisedBVT;\r\n    uint256 public amountRaisedBNB;\r\n    \r\n    /* the start & end date of the privatesale */\r\n    uint256 public start;\r\n    uint256 public deadline;\r\n\r\n    //address [] public privateWhiteListFlag;\r\n    mapping (address => bool) privateWhiteListFlag;\r\n    address [] public privateWhiteList;\r\n\r\n    /* there are different prices in different time intervals */\r\n    uint256 public BNBPrice = 4*10**8;\r\n\r\n    uint256 public createTime;  \r\n\r\n    /* the address of the token contract */\r\n    IBVToken private tokenBVT;\r\n\r\n    mapping(address => uint256) public balanceOfBNB;\r\n    /* the balances (in BVT) of all investors */\r\n    mapping(address => uint256) public balanceOfBVT;\r\n    /* indicates if the privatesale has been closed already */\r\n    bool public saleClosed = false;\r\n\r\n    /* notifying transfers and the success of the privatesale*/\r\n    event FundTransfer(\r\n        address backer,\r\n        uint256 amount,\r\n        bool isContribution,\r\n        uint256 amountRaised\r\n    );\r\n\r\n    /*  initialization, set the token address */\r\n    constructor(\r\n        IBVToken _token,\r\n        uint256 _start,\r\n        uint256 _dead\r\n    ) {\r\n        tokenBVT = _token;\r\n        start = _start;\r\n        deadline = _dead;\r\n    }\r\n\r\n    /**\r\n     * @dev update deadline and publishDate from parameter\r\n     * @param _dead new deadline\r\n     */\r\n    function updateDeadline(uint256 _dead)\r\n        external\r\n        override\r\n        onlyOwner\r\n    {\r\n        require(saleClosed == false, \"private: sale is already closed\");\r\n        deadline = _dead;\r\n    }\r\n\r\n    /**\r\n     * @dev update start date from parameter\r\n     * @param _start new start date\r\n     */\r\n    function updateStart(uint256 _start) external override onlyOwner {\r\n        require(\r\n            block.timestamp < start,\r\n            \"PublicSale: public sale is already started or ended.\"\r\n        );\r\n        start = _start;\r\n    }\r\n\r\n    /**\r\n     * @dev return total BVT balance of contract\r\n     */\r\n    function getBVTBalance() external view override returns (uint256) {\r\n        return tokenBVT.balanceOf(address(this));\r\n    }\r\n\r\n    //for test\r\n    // function getmsgvalue() public view returns(uint256){\r\n    //     return msgvalue;\r\n    // }\r\n\r\n    function getbalance() public view returns(uint256){\r\n        return address(this).balance;\r\n    }\r\n\r\n    function getPrivateWhiteList()public view returns(address [] memory){\r\n        return privateWhiteList;\r\n    }\r\n\r\n    /* make an investment\r\n     *  only callable if the privatesale started and hasn't been closed already and the maxGoal wasn't reached yet.\r\n     *  the current token price is looked up and the corresponding number of tokens is transfered to the receiver.\r\n     *  the sent value is directly forwarded to a safe multisig wallet.\r\n     *  this method allows to purchase tokens in behalf of another address.*/\r\n    \r\n    function investBNB() public payable{\r\n        uint256 amount = msg.value;\r\n        //for test\r\n            // msgvalue = amount;\r\n\r\n        require(block.timestamp >= start, \"sale-not-started\");        \r\n        require(\r\n            saleClosed == false && block.timestamp < deadline,\r\n            \"sale-closed\"\r\n        );\r\n\r\n\t\trequire(msg.value >= 0.25 * 10**18, \"Fund is less than 0.25 BNB\");\r\n\t\trequire(msg.value <= 2 * 10**18, \"Fund is more than 2 BNB\");\r\n        require(balanceOfBNB[msg.sender] == 0, \"You can only buy once\");\r\n        require(privateWhiteListFlag[msg.sender] != true, \"BUYED\");\r\n        require(saleClosed == false, \"PrivateSale has 600 BNB\");\r\n        \r\n\r\n\t\tbalanceOfBNB[msg.sender] = balanceOfBNB[msg.sender].add(amount);\r\n\t\tamountRaisedBNB = amountRaisedBNB.add(amount);\r\n        if(amountRaisedBNB >= 600 * 10 ** 18)\r\n            saleClosed = true;\r\n\t\tbalanceOfBVT[msg.sender] = balanceOfBVT[msg.sender].add(amount.mul(BNBPrice ));\r\n\t\tamountRaisedBVT = amountRaisedBVT.add(amount.mul(BNBPrice));\r\n        privateWhiteListFlag[msg.sender] = true;\r\n        privateWhiteList.push(msg.sender);\r\n        \r\n        emit FundTransfer(msg.sender, amount, true, amountRaisedBNB);\r\n    }\r\n\r\n    function getFundsBNB() public nonReentrant {\r\n        require(balanceOfBVT[msg.sender] > 0, \"non-contribution\");\r\n        uint256 amount = balanceOfBVT[msg.sender];\r\n        uint256 balance = tokenBVT.balanceOf(address(this));\r\n        require(balance >= amount, \"lack of funds\");\r\n        balanceOfBVT[msg.sender] = 0;\r\n        tokenBVT.transfer(msg.sender, amount);\r\n    }\r\n\r\n    /**\r\n     * @dev withdraw BVT balance of contract\r\n     */\r\n    function withdrawBVT()\r\n        external\r\n        override\r\n        onlyOwner\r\n        returns (uint256 balance)\r\n    {\r\n        balance = tokenBVT.balanceOf(address(this));\r\n        require(balance > 0, \"zero-BVT-balance\");\r\n        tokenBVT.transfer(owner(), balance);\r\n    }\r\n\r\n    function withdrawBNB()\r\n        external\r\n        override\r\n        onlyOwner\r\n        payable\r\n    {\r\n        uint256 balance = address(this).balance;\r\n        payable(msg.sender).transfer(balance);\r\n    }\r\n\r\n    function getCurrentTime() public view returns(uint256){\r\n        uint256 currenttime = block.timestamp;\r\n        return currenttime;\r\n    }\r\n    function getDeadlineTime() public view returns(uint256){\r\n        uint256 dead = deadline;\r\n        return dead;\r\n    }\r\n    function getRemainTime() public view returns(uint256){\r\n        uint256 remainTime = deadline - block.timestamp;\r\n        return remainTime;\r\n    }\r\n}",
  "sourcePath": "D:\\Work\\BlockChain\\BlocVault-git\\BlocVault\\BlocVault\\contracts\\PublicSale.sol",
  "compiler": {
    "name": "solc",
    "version": "0.7.6+commit.7338295f.Emscripten.clang"
  },
  "schemaVersion": "3.4.3",
  "updatedAt": "2021-12-06T04:39:27.515Z",
  "devdoc": {
    "kind": "dev",
    "methods": {
      "getBVTBalance()": {
        "details": "return total BVT balance of contract"
      },
      "owner()": {
        "details": "Returns the address of the current owner."
      },
      "renounceOwnership()": {
        "details": "Leaves the contract without owner. It will not be possible to call `onlyOwner` functions anymore. Can only be called by the current owner. NOTE: Renouncing ownership will leave the contract without an owner, thereby removing any functionality that is only available to the owner."
      },
      "transferOwnership(address)": {
        "details": "Transfers ownership of the contract to a new account (`newOwner`). Can only be called by the current owner."
      },
      "updateDeadline(uint256)": {
        "details": "update deadline and publishDate from parameter",
        "params": {
          "_dead": "new deadline"
        }
      },
      "updateStart(uint256)": {
        "details": "update start date from parameter",
        "params": {
          "_start": "new start date"
        }
      },
      "withdrawBVT()": {
        "details": "withdraw BVT balance of contract"
      }
    },
    "version": 1
  },
  "userdoc": {
    "kind": "user",
    "methods": {},
    "version": 1
  }
}